{
  "_format": "hh3-artifact-1",
  "contractName": "HoneyTokenization",
  "sourceName": "contracts/HoneyTokenization.sol",
  "abi": [
    {
      "inputs": [
        {
          "internalType": "string",
          "name": "uriIpfs",
          "type": "string"
        }
      ],
      "stateMutability": "nonpayable",
      "type": "constructor"
    },
    {
      "inputs": [
        {
          "internalType": "address",
          "name": "sender",
          "type": "address"
        },
        {
          "internalType": "uint256",
          "name": "balance",
          "type": "uint256"
        },
        {
          "internalType": "uint256",
          "name": "needed",
          "type": "uint256"
        },
        {
          "internalType": "uint256",
          "name": "tokenId",
          "type": "uint256"
        }
      ],
      "name": "ERC1155InsufficientBalance",
      "type": "error"
    },
    {
      "inputs": [
        {
          "internalType": "address",
          "name": "approver",
          "type": "address"
        }
      ],
      "name": "ERC1155InvalidApprover",
      "type": "error"
    },
    {
      "inputs": [
        {
          "internalType": "uint256",
          "name": "idsLength",
          "type": "uint256"
        },
        {
          "internalType": "uint256",
          "name": "valuesLength",
          "type": "uint256"
        }
      ],
      "name": "ERC1155InvalidArrayLength",
      "type": "error"
    },
    {
      "inputs": [
        {
          "internalType": "address",
          "name": "operator",
          "type": "address"
        }
      ],
      "name": "ERC1155InvalidOperator",
      "type": "error"
    },
    {
      "inputs": [
        {
          "internalType": "address",
          "name": "receiver",
          "type": "address"
        }
      ],
      "name": "ERC1155InvalidReceiver",
      "type": "error"
    },
    {
      "inputs": [
        {
          "internalType": "address",
          "name": "sender",
          "type": "address"
        }
      ],
      "name": "ERC1155InvalidSender",
      "type": "error"
    },
    {
      "inputs": [
        {
          "internalType": "address",
          "name": "operator",
          "type": "address"
        },
        {
          "internalType": "address",
          "name": "owner",
          "type": "address"
        }
      ],
      "name": "ERC1155MissingApprovalForAll",
      "type": "error"
    },
    {
      "inputs": [],
      "name": "InvalidStringLength",
      "type": "error"
    },
    {
      "inputs": [
        {
          "internalType": "address",
          "name": "owner",
          "type": "address"
        }
      ],
      "name": "OwnableInvalidOwner",
      "type": "error"
    },
    {
      "inputs": [
        {
          "internalType": "address",
          "name": "account",
          "type": "address"
        }
      ],
      "name": "OwnableUnauthorizedAccount",
      "type": "error"
    },
    {
      "anonymous": false,
      "inputs": [
        {
          "indexed": true,
          "internalType": "address",
          "name": "account",
          "type": "address"
        },
        {
          "indexed": true,
          "internalType": "address",
          "name": "operator",
          "type": "address"
        },
        {
          "indexed": false,
          "internalType": "bool",
          "name": "approved",
          "type": "bool"
        }
      ],
      "name": "ApprovalForAll",
      "type": "event"
    },
    {
      "anonymous": false,
      "inputs": [
        {
          "indexed": true,
          "internalType": "address",
          "name": "producer",
          "type": "address"
        },
        {
          "indexed": true,
          "internalType": "uint256",
          "name": "tokenId",
          "type": "uint256"
        },
        {
          "indexed": false,
          "internalType": "uint256",
          "name": "amount",
          "type": "uint256"
        }
      ],
      "name": "HoneyBatchMinted",
      "type": "event"
    },
    {
      "anonymous": false,
      "inputs": [
        {
          "indexed": true,
          "internalType": "address",
          "name": "previousOwner",
          "type": "address"
        },
        {
          "indexed": true,
          "internalType": "address",
          "name": "newOwner",
          "type": "address"
        }
      ],
      "name": "OwnershipTransferred",
      "type": "event"
    },
    {
      "anonymous": false,
      "inputs": [
        {
          "indexed": true,
          "internalType": "address",
          "name": "operator",
          "type": "address"
        },
        {
          "indexed": true,
          "internalType": "address",
          "name": "from",
          "type": "address"
        },
        {
          "indexed": true,
          "internalType": "address",
          "name": "to",
          "type": "address"
        },
        {
          "indexed": false,
          "internalType": "uint256[]",
          "name": "ids",
          "type": "uint256[]"
        },
        {
          "indexed": false,
          "internalType": "uint256[]",
          "name": "values",
          "type": "uint256[]"
        }
      ],
      "name": "TransferBatch",
      "type": "event"
    },
    {
      "anonymous": false,
      "inputs": [
        {
          "indexed": true,
          "internalType": "address",
          "name": "operator",
          "type": "address"
        },
        {
          "indexed": true,
          "internalType": "address",
          "name": "from",
          "type": "address"
        },
        {
          "indexed": true,
          "internalType": "address",
          "name": "to",
          "type": "address"
        },
        {
          "indexed": false,
          "internalType": "uint256",
          "name": "id",
          "type": "uint256"
        },
        {
          "indexed": false,
          "internalType": "uint256",
          "name": "value",
          "type": "uint256"
        }
      ],
      "name": "TransferSingle",
      "type": "event"
    },
    {
      "anonymous": false,
      "inputs": [
        {
          "indexed": false,
          "internalType": "string",
          "name": "value",
          "type": "string"
        },
        {
          "indexed": true,
          "internalType": "uint256",
          "name": "id",
          "type": "uint256"
        }
      ],
      "name": "URI",
      "type": "event"
    },
    {
      "inputs": [
        {
          "internalType": "address",
          "name": "account",
          "type": "address"
        },
        {
          "internalType": "uint256",
          "name": "id",
          "type": "uint256"
        }
      ],
      "name": "balanceOf",
      "outputs": [
        {
          "internalType": "uint256",
          "name": "",
          "type": "uint256"
        }
      ],
      "stateMutability": "view",
      "type": "function"
    },
    {
      "inputs": [
        {
          "internalType": "address[]",
          "name": "accounts",
          "type": "address[]"
        },
        {
          "internalType": "uint256[]",
          "name": "ids",
          "type": "uint256[]"
        }
      ],
      "name": "balanceOfBatch",
      "outputs": [
        {
          "internalType": "uint256[]",
          "name": "",
          "type": "uint256[]"
        }
      ],
      "stateMutability": "view",
      "type": "function"
    },
    {
      "inputs": [
        {
          "internalType": "address",
          "name": "account",
          "type": "address"
        },
        {
          "internalType": "address",
          "name": "operator",
          "type": "address"
        }
      ],
      "name": "isApprovedForAll",
      "outputs": [
        {
          "internalType": "bool",
          "name": "",
          "type": "bool"
        }
      ],
      "stateMutability": "view",
      "type": "function"
    },
    {
      "inputs": [
        {
          "internalType": "address",
          "name": "_producer",
          "type": "address"
        },
        {
          "internalType": "uint256",
          "name": "_amount",
          "type": "uint256"
        },
        {
          "internalType": "string",
          "name": "_uri",
          "type": "string"
        }
      ],
      "name": "mintHoneyBatch",
      "outputs": [
        {
          "internalType": "uint256",
          "name": "",
          "type": "uint256"
        }
      ],
      "stateMutability": "nonpayable",
      "type": "function"
    },
    {
      "inputs": [],
      "name": "owner",
      "outputs": [
        {
          "internalType": "address",
          "name": "",
          "type": "address"
        }
      ],
      "stateMutability": "view",
      "type": "function"
    },
    {
      "inputs": [],
      "name": "renounceOwnership",
      "outputs": [],
      "stateMutability": "nonpayable",
      "type": "function"
    },
    {
      "inputs": [
        {
          "internalType": "address",
          "name": "from",
          "type": "address"
        },
        {
          "internalType": "address",
          "name": "to",
          "type": "address"
        },
        {
          "internalType": "uint256[]",
          "name": "ids",
          "type": "uint256[]"
        },
        {
          "internalType": "uint256[]",
          "name": "values",
          "type": "uint256[]"
        },
        {
          "internalType": "bytes",
          "name": "data",
          "type": "bytes"
        }
      ],
      "name": "safeBatchTransferFrom",
      "outputs": [],
      "stateMutability": "nonpayable",
      "type": "function"
    },
    {
      "inputs": [
        {
          "internalType": "address",
          "name": "from",
          "type": "address"
        },
        {
          "internalType": "address",
          "name": "to",
          "type": "address"
        },
        {
          "internalType": "uint256",
          "name": "id",
          "type": "uint256"
        },
        {
          "internalType": "uint256",
          "name": "value",
          "type": "uint256"
        },
        {
          "internalType": "bytes",
          "name": "data",
          "type": "bytes"
        }
      ],
      "name": "safeTransferFrom",
      "outputs": [],
      "stateMutability": "nonpayable",
      "type": "function"
    },
    {
      "inputs": [
        {
          "internalType": "address",
          "name": "operator",
          "type": "address"
        },
        {
          "internalType": "bool",
          "name": "approved",
          "type": "bool"
        }
      ],
      "name": "setApprovalForAll",
      "outputs": [],
      "stateMutability": "nonpayable",
      "type": "function"
    },
    {
      "inputs": [
        {
          "internalType": "bytes4",
          "name": "interfaceId",
          "type": "bytes4"
        }
      ],
      "name": "supportsInterface",
      "outputs": [
        {
          "internalType": "bool",
          "name": "",
          "type": "bool"
        }
      ],
      "stateMutability": "view",
      "type": "function"
    },
    {
      "inputs": [
        {
          "internalType": "uint256",
          "name": "",
          "type": "uint256"
        }
      ],
      "name": "tokenProducer",
      "outputs": [
        {
          "internalType": "address",
          "name": "",
          "type": "address"
        }
      ],
      "stateMutability": "view",
      "type": "function"
    },
    {
      "inputs": [
        {
          "internalType": "address",
          "name": "newOwner",
          "type": "address"
        }
      ],
      "name": "transferOwnership",
      "outputs": [],
      "stateMutability": "nonpayable",
      "type": "function"
    },
    {
      "inputs": [
        {
          "internalType": "uint256",
          "name": "tokenId",
          "type": "uint256"
        }
      ],
      "name": "uri",
      "outputs": [
        {
          "internalType": "string",
          "name": "",
          "type": "string"
        }
      ],
      "stateMutability": "view",
      "type": "function"
    }
  ],
  "bytecode": "0x608060405234801561000f575f5ffd5b506040516117ba3803806117ba83398101604081905261002e916100ec565b338161003981610077565b506001600160a01b03811661006757604051631e4fbdf760e01b81525f600482015260240160405180910390fd5b61007081610087565b50506102da565b60026100838282610220565b5050565b600380546001600160a01b038381166001600160a01b0319831681179093556040519116919082907f8be0079c531659141344cd1fd0a4f28419497f9722a3daafe3b4186f6b6457e0905f90a35050565b634e487b7160e01b5f52604160045260245ffd5b5f602082840312156100fc575f5ffd5b81516001600160401b03811115610111575f5ffd5b8201601f81018413610121575f5ffd5b80516001600160401b0381111561013a5761013a6100d8565b604051601f8201601f19908116603f011681016001600160401b0381118282101715610168576101686100d8565b60405281815282820160200186101561017f575f5ffd5b8160208401602083015e5f91810160200191909152949350505050565b600181811c908216806101b057607f821691505b6020821081036101ce57634e487b7160e01b5f52602260045260245ffd5b50919050565b601f82111561021b57805f5260205f20601f840160051c810160208510156101f95750805b601f840160051c820191505b81811015610218575f8155600101610205565b50505b505050565b81516001600160401b03811115610239576102396100d8565b61024d81610247845461019c565b846101d4565b6020601f82116001811461027f575f83156102685750848201515b5f19600385901b1c1916600184901b178455610218565b5f84815260208120601f198516915b828110156102ae578785015182556020948501946001909201910161028e565b50848210156102cb57868401515f19600387901b60f8161c191681555b50505050600190811b01905550565b6114d3806102e75f395ff3fe608060405234801561000f575f5ffd5b50600436106100ca575f3560e01c806376fb743411610088578063a22cb46511610063578063a22cb465146101d4578063e985e9c5146101e7578063f242432a146101fa578063f2fde38b1461020d575f5ffd5b806376fb7434146101745780638da5cb5b146101875780639de45eee146101ac575f5ffd5b8062fdd58e146100ce57806301ffc9a7146100f45780630e89341c146101175780632eb2c2d6146101375780634e1273f41461014c578063715018a61461016c575b5f5ffd5b6100e16100dc366004610d2b565b610220565b6040519081526020015b60405180910390f35b610107610102366004610d68565b610247565b60405190151581526020016100eb565b61012a610125366004610d8a565b610296565b6040516100eb9190610dcf565b61014a610145366004610f2a565b610335565b005b61015f61015a366004610fd9565b6103a1565b6040516100eb91906110d6565b61014a61046c565b6100e16101823660046110e8565b61047f565b6003546001600160a01b03165b6040516001600160a01b0390911681526020016100eb565b6101946101ba366004610d8a565b60066020525f90815260409020546001600160a01b031681565b61014a6101e236600461114e565b610570565b6101076101f5366004611187565b61057f565b61014a6102083660046111b8565b6105ac565b61014a61021b36600461120c565b61060b565b5f818152602081815260408083206001600160a01b03861684529091529020545b92915050565b5f6001600160e01b03198216636cdb3d1360e11b148061027757506001600160e01b031982166303a24d0760e21b145b8061024157506301ffc9a760e01b6001600160e01b0319831614610241565b5f8181526005602052604090208054606091906102b290611225565b80601f01602080910402602001604051908101604052809291908181526020018280546102de90611225565b80156103295780601f1061030057610100808354040283529160200191610329565b820191905f5260205f20905b81548152906001019060200180831161030c57829003601f168201915b50505050509050919050565b336001600160a01b03861681148015906103565750610354868261057f565b155b1561038c5760405163711bec9160e11b81526001600160a01b038083166004830152871660248201526044015b60405180910390fd5b6103998686868686610648565b505050505050565b606081518351146103d25781518351604051635b05999160e01b815260048101929092526024820152604401610383565b5f835167ffffffffffffffff8111156103ed576103ed610de1565b604051908082528060200260200182016040528015610416578160200160208202803683370190505b5090505f5b84518110156104645760208082028601015161043f90602080840287010151610220565b8282815181106104515761045161125d565b602090810291909101015260010161041b565b509392505050565b6104746106ad565b61047d5f6106da565b565b5f6104886106ad565b600a8251108061049a57506101008251115b156104b857604051638dc6ac0160e01b815260040160405180910390fd5b60048054905f6104c783611285565b90915550506004545f81815260066020908152604080832080546001600160a01b0319166001600160a01b038a161790556005909152902061050984826112e6565b5061052485828660405180602001604052805f81525061072b565b80856001600160a01b03167fb17bea55e327335b7e5259f2b8407ed5d7cf1d8a210d767fd19a18e30549fe208660405161056091815260200190565b60405180910390a3949350505050565b61057b338383610786565b5050565b6001600160a01b039182165f90815260016020908152604080832093909416825291909152205460ff1690565b336001600160a01b03861681148015906105cd57506105cb868261057f565b155b156105fe5760405163711bec9160e11b81526001600160a01b03808316600483015287166024820152604401610383565b610399868686868661081a565b6106136106ad565b6001600160a01b03811661063c57604051631e4fbdf760e01b81525f6004820152602401610383565b610645816106da565b50565b6001600160a01b03841661067157604051632bfa23e760e11b81525f6004820152602401610383565b6001600160a01b03851661069957604051626a0d4560e21b81525f6004820152602401610383565b6106a685858585856108a6565b5050505050565b6003546001600160a01b0316331461047d5760405163118cdaa760e01b8152336004820152602401610383565b600380546001600160a01b038381166001600160a01b0319831681179093556040519116919082907f8be0079c531659141344cd1fd0a4f28419497f9722a3daafe3b4186f6b6457e0905f90a35050565b6001600160a01b03841661075457604051632bfa23e760e11b81525f6004820152602401610383565b604080516001808252602082018690528183019081526060820185905260808201909252906103995f878484876108a6565b6001600160a01b0382166107ae5760405162ced3e160e81b81525f6004820152602401610383565b6001600160a01b038381165f81815260016020908152604080832094871680845294825291829020805460ff191686151590811790915591519182527f17307eab39ab6107e8899845ad3d59bd9653f200f220920489ca2b5937696c31910160405180910390a3505050565b6001600160a01b03841661084357604051632bfa23e760e11b81525f6004820152602401610383565b6001600160a01b03851661086b57604051626a0d4560e21b81525f6004820152602401610383565b6040805160018082526020820186905281830190815260608201859052608082019092529061089d87878484876108a6565b50505050505050565b6108b2858585856108f9565b6001600160a01b038416156106a657825133906001036108eb57602084810151908401516108e4838989858589610b08565b5050610399565b610399818787878787610c29565b80518251146109285781518151604051635b05999160e01b815260048101929092526024820152604401610383565b335f5b8351811015610a2a576020818102858101820151908501909101516001600160a01b038816156109dc575f828152602081815260408083206001600160a01b038c168452909152902054818110156109b6576040516303dee4c560e01b81526001600160a01b038a166004820152602481018290526044810183905260648101849052608401610383565b5f838152602081815260408083206001600160a01b038d16845290915290209082900390555b6001600160a01b03871615610a20575f828152602081815260408083206001600160a01b038b16845290915281208054839290610a1a9084906113a1565b90915550505b505060010161092b565b508251600103610aaa5760208301515f906020840151909150856001600160a01b0316876001600160a01b0316846001600160a01b03167fc3d58168c5ae7397731d063d5bbf3d657854427343f4c083240f7aacaa2d0f628585604051610a9b929190918252602082015260400190565b60405180910390a450506106a6565b836001600160a01b0316856001600160a01b0316826001600160a01b03167f4a39dc06d4c0dbc64b70af90fd698a233a518aa5d07e595d983b8c0526c8f7fb8686604051610af99291906113b4565b60405180910390a45050505050565b6001600160a01b0384163b156103995760405163f23a6e6160e01b81526001600160a01b0385169063f23a6e6190610b4c90899089908890889088906004016113e1565b6020604051808303815f875af1925050508015610b86575060408051601f3d908101601f19168201909252610b8391810190611425565b60015b610bed573d808015610bb3576040519150601f19603f3d011682016040523d82523d5f602084013e610bb8565b606091505b5080515f03610be557604051632bfa23e760e11b81526001600160a01b0386166004820152602401610383565b805160208201fd5b6001600160e01b0319811663f23a6e6160e01b1461089d57604051632bfa23e760e11b81526001600160a01b0386166004820152602401610383565b6001600160a01b0384163b156103995760405163bc197c8160e01b81526001600160a01b0385169063bc197c8190610c6d9089908990889088908890600401611440565b6020604051808303815f875af1925050508015610ca7575060408051601f3d908101601f19168201909252610ca491810190611425565b60015b610cd4573d808015610bb3576040519150601f19603f3d011682016040523d82523d5f602084013e610bb8565b6001600160e01b0319811663bc197c8160e01b1461089d57604051632bfa23e760e11b81526001600160a01b0386166004820152602401610383565b80356001600160a01b0381168114610d26575f5ffd5b919050565b5f5f60408385031215610d3c575f5ffd5b610d4583610d10565b946020939093013593505050565b6001600160e01b031981168114610645575f5ffd5b5f60208284031215610d78575f5ffd5b8135610d8381610d53565b9392505050565b5f60208284031215610d9a575f5ffd5b5035919050565b5f81518084528060208401602086015e5f602082860101526020601f19601f83011685010191505092915050565b602081525f610d836020830184610da1565b634e487b7160e01b5f52604160045260245ffd5b604051601f8201601f1916810167ffffffffffffffff81118282101715610e1e57610e1e610de1565b604052919050565b5f67ffffffffffffffff821115610e3f57610e3f610de1565b5060051b60200190565b5f82601f830112610e58575f5ffd5b8135610e6b610e6682610e26565b610df5565b8082825260208201915060208360051b860101925085831115610e8c575f5ffd5b602085015b83811015610ea9578035835260209283019201610e91565b5095945050505050565b5f5f67ffffffffffffffff841115610ecd57610ecd610de1565b50601f8301601f1916602001610ee281610df5565b915050828152838383011115610ef6575f5ffd5b828260208301375f602084830101529392505050565b5f82601f830112610f1b575f5ffd5b610d8383833560208501610eb3565b5f5f5f5f5f60a08688031215610f3e575f5ffd5b610f4786610d10565b9450610f5560208701610d10565b9350604086013567ffffffffffffffff811115610f70575f5ffd5b610f7c88828901610e49565b935050606086013567ffffffffffffffff811115610f98575f5ffd5b610fa488828901610e49565b925050608086013567ffffffffffffffff811115610fc0575f5ffd5b610fcc88828901610f0c565b9150509295509295909350565b5f5f60408385031215610fea575f5ffd5b823567ffffffffffffffff811115611000575f5ffd5b8301601f81018513611010575f5ffd5b803561101e610e6682610e26565b8082825260208201915060208360051b85010192508783111561103f575f5ffd5b6020840193505b828410156110685761105784610d10565b825260209384019390910190611046565b9450505050602083013567ffffffffffffffff811115611086575f5ffd5b61109285828601610e49565b9150509250929050565b5f8151808452602084019350602083015f5b828110156110cc5781518652602095860195909101906001016110ae565b5093949350505050565b602081525f610d83602083018461109c565b5f5f5f606084860312156110fa575f5ffd5b61110384610d10565b925060208401359150604084013567ffffffffffffffff811115611125575f5ffd5b8401601f81018613611135575f5ffd5b61114486823560208401610eb3565b9150509250925092565b5f5f6040838503121561115f575f5ffd5b61116883610d10565b91506020830135801515811461117c575f5ffd5b809150509250929050565b5f5f60408385031215611198575f5ffd5b6111a183610d10565b91506111af60208401610d10565b90509250929050565b5f5f5f5f5f60a086880312156111cc575f5ffd5b6111d586610d10565b94506111e360208701610d10565b93506040860135925060608601359150608086013567ffffffffffffffff811115610fc0575f5ffd5b5f6020828403121561121c575f5ffd5b610d8382610d10565b600181811c9082168061123957607f821691505b60208210810361125757634e487b7160e01b5f52602260045260245ffd5b50919050565b634e487b7160e01b5f52603260045260245ffd5b634e487b7160e01b5f52601160045260245ffd5b5f6001820161129657611296611271565b5060010190565b601f8211156112e157805f5260205f20601f840160051c810160208510156112c25750805b601f840160051c820191505b818110156106a6575f81556001016112ce565b505050565b815167ffffffffffffffff81111561130057611300610de1565b6113148161130e8454611225565b8461129d565b6020601f821160018114611346575f831561132f5750848201515b5f19600385901b1c1916600184901b1784556106a6565b5f84815260208120601f198516915b828110156113755787850151825560209485019460019092019101611355565b508482101561139257868401515f19600387901b60f8161c191681555b50505050600190811b01905550565b8082018082111561024157610241611271565b604081525f6113c6604083018561109c565b82810360208401526113d8818561109c565b95945050505050565b6001600160a01b03868116825285166020820152604081018490526060810183905260a0608082018190525f9061141a90830184610da1565b979650505050505050565b5f60208284031215611435575f5ffd5b8151610d8381610d53565b6001600160a01b0386811682528516602082015260a0604082018190525f9061146b9083018661109c565b828103606084015261147d818661109c565b905082810360808401526114918185610da1565b9897505050505050505056fea264697066735822122066de506aa376736faedaf790f6eb521096e691368d6b21193fdd02ff8b8a568d64736f6c634300081c0033",
  "linkReferences": {},
  "deployedLinkReferences": {},
  "immutableReferences": {},
  "inputSourceName": "project/contracts/HoneyTokenization.sol",
  "buildInfoId": "solc-0_8_28-a37e63b81abfd007b120a0dacdeb3019c4823dab"
}