{
  "_format": "hh3-artifact-1",
  "contractName": "HoneyTraceStorage",
  "sourceName": "contracts/HoneyTraceStorage.sol",
  "abi": [
    {
      "inputs": [
        {
          "internalType": "address",
          "name": "_honeyTokenizationAddress",
          "type": "address"
        }
      ],
      "stateMutability": "nonpayable",
      "type": "constructor"
    },
    {
      "inputs": [],
      "name": "InvalidStringLength",
      "type": "error"
    },
    {
      "inputs": [
        {
          "internalType": "address",
          "name": "owner",
          "type": "address"
        }
      ],
      "name": "OwnableInvalidOwner",
      "type": "error"
    },
    {
      "inputs": [
        {
          "internalType": "address",
          "name": "account",
          "type": "address"
        }
      ],
      "name": "OwnableUnauthorizedAccount",
      "type": "error"
    },
    {
      "inputs": [],
      "name": "ReentrancyGuardReentrantCall",
      "type": "error"
    },
    {
      "inputs": [],
      "name": "authorizationAlreadyApply",
      "type": "error"
    },
    {
      "inputs": [],
      "name": "batchSizeTooLarge",
      "type": "error"
    },
    {
      "inputs": [],
      "name": "commentLimitReached",
      "type": "error"
    },
    {
      "inputs": [],
      "name": "invalidMerkleProof",
      "type": "error"
    },
    {
      "inputs": [],
      "name": "keyAlreadyClaimed",
      "type": "error"
    },
    {
      "inputs": [],
      "name": "noTokenLeft",
      "type": "error"
    },
    {
      "inputs": [],
      "name": "notAllowedToComment",
      "type": "error"
    },
    {
      "inputs": [],
      "name": "onlyAdminAuthorized",
      "type": "error"
    },
    {
      "inputs": [],
      "name": "producerNotAuthorized",
      "type": "error"
    },
    {
      "inputs": [],
      "name": "ratingMustBeBetween0And5",
      "type": "error"
    },
    {
      "anonymous": false,
      "inputs": [
        {
          "indexed": true,
          "internalType": "address",
          "name": "admin",
          "type": "address"
        }
      ],
      "name": "AdminRemoved",
      "type": "event"
    },
    {
      "anonymous": false,
      "inputs": [
        {
          "indexed": true,
          "internalType": "address",
          "name": "producer",
          "type": "address"
        },
        {
          "indexed": false,
          "internalType": "bool",
          "name": "isAuthorized",
          "type": "bool"
        }
      ],
      "name": "AuthorizationProducer",
      "type": "event"
    },
    {
      "anonymous": false,
      "inputs": [
        {
          "indexed": true,
          "internalType": "address",
          "name": "consumer",
          "type": "address"
        },
        {
          "indexed": true,
          "internalType": "uint256",
          "name": "honeyBatchId",
          "type": "uint256"
        },
        {
          "indexed": false,
          "internalType": "bytes32",
          "name": "keyHash",
          "type": "bytes32"
        }
      ],
      "name": "HoneyTokenClaimed",
      "type": "event"
    },
    {
      "anonymous": false,
      "inputs": [
        {
          "indexed": true,
          "internalType": "address",
          "name": "newAdmin",
          "type": "address"
        }
      ],
      "name": "NewAdmin",
      "type": "event"
    },
    {
      "anonymous": false,
      "inputs": [
        {
          "indexed": true,
          "internalType": "address",
          "name": "consumer",
          "type": "address"
        },
        {
          "indexed": true,
          "internalType": "uint256",
          "name": "honeyBatchId",
          "type": "uint256"
        },
        {
          "indexed": false,
          "internalType": "uint8",
          "name": "rating",
          "type": "uint8"
        }
      ],
      "name": "NewComment",
      "type": "event"
    },
    {
      "anonymous": false,
      "inputs": [
        {
          "indexed": true,
          "internalType": "address",
          "name": "producer",
          "type": "address"
        },
        {
          "indexed": true,
          "internalType": "uint256",
          "name": "honeyBatchId",
          "type": "uint256"
        }
      ],
      "name": "NewHoneyBatch",
      "type": "event"
    },
    {
      "anonymous": false,
      "inputs": [
        {
          "indexed": true,
          "internalType": "address",
          "name": "producer",
          "type": "address"
        }
      ],
      "name": "NewProducer",
      "type": "event"
    },
    {
      "anonymous": false,
      "inputs": [
        {
          "indexed": true,
          "internalType": "address",
          "name": "previousOwner",
          "type": "address"
        },
        {
          "indexed": true,
          "internalType": "address",
          "name": "newOwner",
          "type": "address"
        }
      ],
      "name": "OwnershipTransferred",
      "type": "event"
    },
    {
      "inputs": [],
      "name": "MAX_BATCH_SIZE",
      "outputs": [
        {
          "internalType": "uint256",
          "name": "",
          "type": "uint256"
        }
      ],
      "stateMutability": "view",
      "type": "function"
    },
    {
      "inputs": [],
      "name": "MAX_COMMENTS_PER_USER",
      "outputs": [
        {
          "internalType": "uint256",
          "name": "",
          "type": "uint256"
        }
      ],
      "stateMutability": "view",
      "type": "function"
    },
    {
      "inputs": [
        {
          "internalType": "address",
          "name": "_newAdmin",
          "type": "address"
        }
      ],
      "name": "addAdmin",
      "outputs": [],
      "stateMutability": "nonpayable",
      "type": "function"
    },
    {
      "inputs": [
        {
          "internalType": "uint256",
          "name": "_honeyBatchId",
          "type": "uint256"
        },
        {
          "internalType": "uint8",
          "name": "_rating",
          "type": "uint8"
        },
        {
          "internalType": "string",
          "name": "_metadata",
          "type": "string"
        }
      ],
      "name": "addComment",
      "outputs": [],
      "stateMutability": "nonpayable",
      "type": "function"
    },
    {
      "inputs": [
        {
          "internalType": "string",
          "name": "_honeyType",
          "type": "string"
        },
        {
          "internalType": "string",
          "name": "_metadata",
          "type": "string"
        },
        {
          "internalType": "uint256",
          "name": "_amount",
          "type": "uint256"
        },
        {
          "internalType": "bytes32",
          "name": "_merkleRoot",
          "type": "bytes32"
        }
      ],
      "name": "addHoneyBatch",
      "outputs": [],
      "stateMutability": "nonpayable",
      "type": "function"
    },
    {
      "inputs": [
        {
          "internalType": "string",
          "name": "_name",
          "type": "string"
        },
        {
          "internalType": "string",
          "name": "_location",
          "type": "string"
        },
        {
          "internalType": "string",
          "name": "_companyRegisterNumber",
          "type": "string"
        },
        {
          "internalType": "string",
          "name": "_metadata",
          "type": "string"
        }
      ],
      "name": "addProducer",
      "outputs": [],
      "stateMutability": "nonpayable",
      "type": "function"
    },
    {
      "inputs": [
        {
          "internalType": "address",
          "name": "",
          "type": "address"
        }
      ],
      "name": "admins",
      "outputs": [
        {
          "internalType": "bool",
          "name": "",
          "type": "bool"
        }
      ],
      "stateMutability": "view",
      "type": "function"
    },
    {
      "inputs": [
        {
          "internalType": "address",
          "name": "_producer",
          "type": "address"
        },
        {
          "internalType": "bool",
          "name": "_isAuthorized",
          "type": "bool"
        }
      ],
      "name": "authorizeProducer",
      "outputs": [],
      "stateMutability": "nonpayable",
      "type": "function"
    },
    {
      "inputs": [
        {
          "internalType": "uint256",
          "name": "_honeyBatchId",
          "type": "uint256"
        },
        {
          "internalType": "string",
          "name": "_secretKey",
          "type": "string"
        },
        {
          "internalType": "bytes32[]",
          "name": "_merkleProof",
          "type": "bytes32[]"
        }
      ],
      "name": "claimHoneyToken",
      "outputs": [],
      "stateMutability": "nonpayable",
      "type": "function"
    },
    {
      "inputs": [
        {
          "internalType": "uint256",
          "name": "",
          "type": "uint256"
        },
        {
          "internalType": "address",
          "name": "",
          "type": "address"
        }
      ],
      "name": "commentCount",
      "outputs": [
        {
          "internalType": "uint256",
          "name": "",
          "type": "uint256"
        }
      ],
      "stateMutability": "view",
      "type": "function"
    },
    {
      "inputs": [
        {
          "internalType": "uint256",
          "name": "_id",
          "type": "uint256"
        }
      ],
      "name": "getHoneyBatch",
      "outputs": [
        {
          "components": [
            {
              "internalType": "uint256",
              "name": "id",
              "type": "uint256"
            },
            {
              "internalType": "string",
              "name": "honeyType",
              "type": "string"
            },
            {
              "internalType": "string",
              "name": "metadata",
              "type": "string"
            },
            {
              "internalType": "bytes32",
              "name": "merkleRoot",
              "type": "bytes32"
            }
          ],
          "internalType": "struct HoneyTraceStorage.HoneyBatch",
          "name": "",
          "type": "tuple"
        }
      ],
      "stateMutability": "view",
      "type": "function"
    },
    {
      "inputs": [
        {
          "internalType": "uint256",
          "name": "_honeyBatchId",
          "type": "uint256"
        },
        {
          "internalType": "uint256",
          "name": "offset",
          "type": "uint256"
        },
        {
          "internalType": "uint256",
          "name": "limit",
          "type": "uint256"
        }
      ],
      "name": "getHoneyBatchComments",
      "outputs": [
        {
          "components": [
            {
              "internalType": "address",
              "name": "consumer",
              "type": "address"
            },
            {
              "internalType": "uint256",
              "name": "honeyBatchId",
              "type": "uint256"
            },
            {
              "internalType": "uint8",
              "name": "rating",
              "type": "uint8"
            },
            {
              "internalType": "string",
              "name": "metadata",
              "type": "string"
            }
          ],
          "internalType": "struct HoneyTraceStorage.Comment[]",
          "name": "",
          "type": "tuple[]"
        }
      ],
      "stateMutability": "view",
      "type": "function"
    },
    {
      "inputs": [
        {
          "internalType": "uint256",
          "name": "_honeyBatchId",
          "type": "uint256"
        }
      ],
      "name": "getHoneyBatchCommentsCount",
      "outputs": [
        {
          "internalType": "uint256",
          "name": "",
          "type": "uint256"
        }
      ],
      "stateMutability": "view",
      "type": "function"
    },
    {
      "inputs": [
        {
          "internalType": "address",
          "name": "_address",
          "type": "address"
        }
      ],
      "name": "getProducer",
      "outputs": [
        {
          "components": [
            {
              "internalType": "address",
              "name": "id",
              "type": "address"
            },
            {
              "internalType": "bool",
              "name": "authorized",
              "type": "bool"
            },
            {
              "internalType": "string",
              "name": "name",
              "type": "string"
            },
            {
              "internalType": "string",
              "name": "location",
              "type": "string"
            },
            {
              "internalType": "string",
              "name": "companyRegisterNumber",
              "type": "string"
            },
            {
              "internalType": "string",
              "name": "metadata",
              "type": "string"
            }
          ],
          "internalType": "struct HoneyTraceStorage.Producer",
          "name": "",
          "type": "tuple"
        }
      ],
      "stateMutability": "view",
      "type": "function"
    },
    {
      "inputs": [],
      "name": "honeyTokenization",
      "outputs": [
        {
          "internalType": "contract IHoneyTokenization",
          "name": "",
          "type": "address"
        }
      ],
      "stateMutability": "view",
      "type": "function"
    },
    {
      "inputs": [
        {
          "internalType": "address",
          "name": "_address",
          "type": "address"
        }
      ],
      "name": "isAdmin",
      "outputs": [
        {
          "internalType": "bool",
          "name": "",
          "type": "bool"
        }
      ],
      "stateMutability": "view",
      "type": "function"
    },
    {
      "inputs": [
        {
          "internalType": "uint256",
          "name": "_honeyBatchId",
          "type": "uint256"
        },
        {
          "internalType": "string",
          "name": "_secretKey",
          "type": "string"
        }
      ],
      "name": "isKeyClaimed",
      "outputs": [
        {
          "internalType": "bool",
          "name": "",
          "type": "bool"
        }
      ],
      "stateMutability": "view",
      "type": "function"
    },
    {
      "inputs": [],
      "name": "owner",
      "outputs": [
        {
          "internalType": "address",
          "name": "",
          "type": "address"
        }
      ],
      "stateMutability": "view",
      "type": "function"
    },
    {
      "inputs": [
        {
          "internalType": "address",
          "name": "_admin",
          "type": "address"
        }
      ],
      "name": "removeAdmin",
      "outputs": [],
      "stateMutability": "nonpayable",
      "type": "function"
    },
    {
      "inputs": [],
      "name": "renounceOwnership",
      "outputs": [],
      "stateMutability": "nonpayable",
      "type": "function"
    },
    {
      "inputs": [
        {
          "internalType": "address",
          "name": "newOwner",
          "type": "address"
        }
      ],
      "name": "transferOwnership",
      "outputs": [],
      "stateMutability": "nonpayable",
      "type": "function"
    }
  ],
  "bytecode": "0x608060405234801561000f575f5ffd5b50604051611e0f380380611e0f83398101604081905261002e916100f0565b338061005357604051631e4fbdf760e01b81525f600482015260240160405180910390fd5b61005c816100a1565b506001808055600680546001600160a01b0319166001600160a01b039390931692909217909155335f908152600560205260409020805460ff1916909117905561011d565b5f80546001600160a01b038381166001600160a01b0319831681178455604051919092169283917f8be0079c531659141344cd1fd0a4f28419497f9722a3daafe3b4186f6b6457e09190a35050565b5f60208284031215610100575f5ffd5b81516001600160a01b0381168114610116575f5ffd5b9392505050565b611ce58061012a5f395ff3fe608060405234801561000f575f5ffd5b5060043610610132575f3560e01c8063715018a6116100b4578063aab147b211610079578063aab147b2146102ce578063c32ab58d146102ee578063cfdbf25414610301578063e152e4241461030b578063f2fde38b1461031e578063f666663b14610331575f5ffd5b8063715018a61461025a5780638da5cb5b146102625780638e26848a146102725780639ac44da314610285578063a71af068146102a4575f5ffd5b80634df637ed116100fa5780634df637ed146101d6578063583f164f146101e95780635eadf78514610214578063622a5c6e146102275780637048027514610247575f5ffd5b80631040eddb146101365780631785f53c1461014b57806324d7806c1461015e578063429b62e51461019e57806342a281bf146101c0575b5f5ffd5b6101496101443660046114d9565b610351565b005b610149610159366004611514565b610434565b61018961016c366004611514565b6001600160a01b03165f9081526005602052604090205460ff1690565b60405190151581526020015b60405180910390f35b6101896101ac366004611514565b60056020525f908152604090205460ff1681565b6101c8600a81565b604051908152602001610195565b6101896101e43660046115de565b610484565b6006546101fc906001600160a01b031681565b6040516001600160a01b039091168152602001610195565b610149610222366004611621565b6104cf565b61023a6102353660046116ff565b61075b565b6040516101959190611756565b610149610255366004611514565b61099b565b6101496109ee565b5f546001600160a01b03166101fc565b6101496102803660046117f0565b610a01565b6101c8610293366004611862565b5f9081526004602052604090205490565b6101c86102b2366004611879565b600860209081525f928352604080842090915290825290205481565b6102e16102dc366004611514565b610b96565b604051610195919061189c565b6101496102fc366004611937565b610e62565b6101c8620186a081565b610149610319366004611990565b611081565b61014961032c366004611514565b6111df565b61034461033f366004611862565b611221565b6040516101959190611a45565b335f9081526005602052604090205460ff166103805760405163ace6634560e01b815260040160405180910390fd5b6001600160a01b0382165f90815260026020526040902054811515600160a01b90910460ff161515036103c657604051631fd9ce1160e31b815260040160405180910390fd5b6001600160a01b0382165f81815260026020526040908190208054841515600160a01b0260ff60a01b19909116179055517f4275679677d2d9de02ec363d44169b2620d44e53597b5457f777bae4be99e0db9061042890841515815260200190565b60405180910390a25050565b61043c6113a0565b6001600160a01b0381165f81815260056020526040808220805460ff19169055517fa3b62bc36326052d97ea62d63c3d60308ed4c3ea8ac079dd8499f1e9c4f80c0f9190a250565b5f5f826040516020016104979190611a9e565b60408051601f1981840301815291815281516020928301205f87815260078452828120918152925290205460ff169150505b92915050565b6104d76113cc565b5f838152600360205260408082206006549151634ef22f7760e11b8152600481018790529092916001600160a01b031690639de45eee90602401602060405180830381865afa15801561052c573d5f5f3e3d5ffd5b505050506040513d601f19601f820116820180604052508101906105509190611ab4565b600654604051627eeac760e11b81526001600160a01b038084166004830152602482018990529293505f929091169062fdd58e90604401602060405180830381865afa1580156105a2573d5f5f3e3d5ffd5b505050506040513d601f19601f820116820180604052508101906105c69190611acf565b90505f81116105e8576040516367a15b2960e01b815260040160405180910390fd5b5f856040516020016105fa9190611a9e565b60408051601f1981840301815291815281516020928301205f8a81526007845282812082825290935291205490915060ff161561064a576040516306c402dd60e31b815260040160405180910390fd5b610659858560030154836113f6565b610676576040516371bfbd4760e01b815260040160405180910390fd5b5f878152600760209081526040808320848452825291829020805460ff191660011790559051828152889133917f177e38c16407f7d4263d5354c2d05573eeb4b0a8af543b02eb1bd6ad4770bee6910160405180910390a3600654604051637921219560e11b81526001600160a01b038581166004830152336024830152604482018a90526001606483015260a060848301525f60a48301529091169063f242432a9060c4015f604051808303815f87803b158015610733575f5ffd5b505af1158015610745573d5f5f3e3d5ffd5b505050505050505061075660018055565b505050565b5f838152600460205260409020546060908084106107c257604080515f80825260208201909252906107b9565b604080516080810182525f80825260208083018290529282015260608082015282525f199092019101816107885790505b50915050610994565b5f816107ce8587611afa565b116107e2576107dd8486611afa565b6107e4565b815b90505f6107f18683611b0d565b90505f816001600160401b0381111561080c5761080c61152f565b60405190808252806020026020018201604052801561085b57816020015b604080516080810182525f80825260208083018290529282015260608082015282525f1990920191018161082a5790505b5090505f5b8281101561098d575f89815260046020526040902061087f828a611afa565b8154811061088f5761088f611b20565b5f91825260209182902060408051608081018252600490930290910180546001600160a01b03168352600181015493830193909352600283015460ff16908201526003820180549192916060840191906108e890611b34565b80601f016020809104026020016040519081016040528092919081815260200182805461091490611b34565b801561095f5780601f106109365761010080835404028352916020019161095f565b820191905f5260205f20905b81548152906001019060200180831161094257829003601f168201915b50505050508152505082828151811061097a5761097a611b20565b6020908102919091010152600101610860565b5093505050505b9392505050565b6109a36113a0565b6001600160a01b0381165f81815260056020526040808220805460ff19166001179055517f71614071b88dee5e0b2ae578a9dd7b2ebbe9ae832ba419dc0242cd065a290b6c9190a250565b6109f66113a0565b6109ff5f61140b565b565b335f90815260026020526040902054600160a01b900460ff16610a3757604051630decc33b60e41b815260040160405180910390fd5b83511580610a46575060408451115b15610a6457604051638dc6ac0160e01b815260040160405180910390fd5b82511580610a7457506104008351115b15610a9257604051638dc6ac0160e01b815260040160405180910390fd5b620186a0821115610ab657604051631ecc939360e11b815260040160405180910390fd5b600654604051631dbedd0d60e21b81525f916001600160a01b0316906376fb743490610aea90339087908990600401611b6c565b6020604051808303815f875af1158015610b06573d5f5f3e3d5ffd5b505050506040513d601f19601f82011682018060405250810190610b2a9190611acf565b5f81815260036020526040902081815590915060018101610b4b8782611bdd565b5060028101610b5a8682611bdd565b5060038101839055604051829033907fdc5cf2f196c842f34bf2c67dd883b00e9b199322e44c593ee804b2f666a2914c905f90a3505050505050565b610bd86040518060c001604052805f6001600160a01b031681526020015f15158152602001606081526020016060815260200160608152602001606081525090565b6001600160a01b038281165f90815260026020908152604091829020825160c08101845281549485168152600160a01b90940460ff161515918401919091526001810180549192840191610c2b90611b34565b80601f0160208091040260200160405190810160405280929190818152602001828054610c5790611b34565b8015610ca25780601f10610c7957610100808354040283529160200191610ca2565b820191905f5260205f20905b815481529060010190602001808311610c8557829003601f168201915b50505050508152602001600282018054610cbb90611b34565b80601f0160208091040260200160405190810160405280929190818152602001828054610ce790611b34565b8015610d325780601f10610d0957610100808354040283529160200191610d32565b820191905f5260205f20905b815481529060010190602001808311610d1557829003601f168201915b50505050508152602001600382018054610d4b90611b34565b80601f0160208091040260200160405190810160405280929190818152602001828054610d7790611b34565b8015610dc25780601f10610d9957610100808354040283529160200191610dc2565b820191905f5260205f20905b815481529060010190602001808311610da557829003601f168201915b50505050508152602001600482018054610ddb90611b34565b80601f0160208091040260200160405190810160405280929190818152602001828054610e0790611b34565b8015610e525780601f10610e2957610100808354040283529160200191610e52565b820191905f5260205f20905b815481529060010190602001808311610e3557829003601f168201915b5050505050815250509050919050565b600654604051627eeac760e11b8152336004820152602481018590525f916001600160a01b03169062fdd58e90604401602060405180830381865afa158015610ead573d5f5f3e3d5ffd5b505050506040513d601f19601f82011682018060405250810190610ed19190611acf565b11610eef57604051635c62ac8960e01b815260040160405180910390fd5b60058260ff161115610f1457604051633bc5fb4360e01b815260040160405180910390fd5b5f838152600860209081526040808320338452909152902054600a11610f4d576040516314921f4160e01b815260040160405180910390fd5b600581511080610f5f57506101f48151115b15610f7d57604051638dc6ac0160e01b815260040160405180910390fd5b5f838152600460208181526040808420815160808101835233815280840189815260ff89811694830194855260608301898152845460018082018755958a529690982083519690970290960180546001600160a01b0319166001600160a01b039096169590951785555191840191909155905160028301805460ff19169190941617909255915190919060038201906110169082611bdd565b5050505f838152600860209081526040808320338452909152812080549161103d83611c97565b909155505060405160ff83168152839033907f3cced9413e252a4eebba16b372679a395c5134d9c44a63746f99faa76d2fc6709060200160405180910390a3505050565b335f90815260026020526040902054600160a01b900460ff166110b757604051630decc33b60e41b815260040160405180910390fd5b835115806110c757506101008451115b156110e557604051638dc6ac0160e01b815260040160405180910390fd5b825115806110f557506101008351115b1561111357604051638dc6ac0160e01b815260040160405180910390fd5b81511580611122575060408251115b1561114057604051638dc6ac0160e01b815260040160405180910390fd5b6104008151111561116457604051638dc6ac0160e01b815260040160405180910390fd5b335f908152600260205260409020600181016111808682611bdd565b506002810161118f8582611bdd565b506003810161119e8482611bdd565b50600481016111ad8382611bdd565b5060405133907f8586453cf10c7dfe9b3b6ba95bfb1258ca31a7e45202e79fbc68bbbd06204de2905f90a25050505050565b6111e76113a0565b6001600160a01b03811661121557604051631e4fbdf760e01b81525f60048201526024015b60405180910390fd5b61121e8161140b565b50565b61124a60405180608001604052805f815260200160608152602001606081526020015f81525090565b60035f8381526020019081526020015f206040518060800160405290815f820154815260200160018201805461127f90611b34565b80601f01602080910402602001604051908101604052809291908181526020018280546112ab90611b34565b80156112f65780601f106112cd576101008083540402835291602001916112f6565b820191905f5260205f20905b8154815290600101906020018083116112d957829003601f168201915b5050505050815260200160028201805461130f90611b34565b80601f016020809104026020016040519081016040528092919081815260200182805461133b90611b34565b80156113865780601f1061135d57610100808354040283529160200191611386565b820191905f5260205f20905b81548152906001019060200180831161136957829003601f168201915b505050505081526020016003820154815250509050919050565b5f546001600160a01b031633146109ff5760405163118cdaa760e01b815233600482015260240161120c565b6002600154036113ef57604051633ee5aeb560e01b815260040160405180910390fd5b6002600155565b5f82611402858461145a565b14949350505050565b5f80546001600160a01b038381166001600160a01b0319831681178455604051919092169283917f8be0079c531659141344cd1fd0a4f28419497f9722a3daafe3b4186f6b6457e09190a35050565b5f81815b84518110156114945761148a8286838151811061147d5761147d611b20565b602002602001015161149c565b915060010161145e565b509392505050565b5f8183106114b6575f828152602084905260409020610994565b505f9182526020526040902090565b6001600160a01b038116811461121e575f5ffd5b5f5f604083850312156114ea575f5ffd5b82356114f5816114c5565b915060208301358015158114611509575f5ffd5b809150509250929050565b5f60208284031215611524575f5ffd5b8135610994816114c5565b634e487b7160e01b5f52604160045260245ffd5b604051601f8201601f191681016001600160401b038111828210171561156b5761156b61152f565b604052919050565b5f82601f830112611582575f5ffd5b81356001600160401b0381111561159b5761159b61152f565b6115ae601f8201601f1916602001611543565b8181528460208386010111156115c2575f5ffd5b816020850160208301375f918101602001919091529392505050565b5f5f604083850312156115ef575f5ffd5b8235915060208301356001600160401b0381111561160b575f5ffd5b61161785828601611573565b9150509250929050565b5f5f5f60608486031215611633575f5ffd5b8335925060208401356001600160401b0381111561164f575f5ffd5b61165b86828701611573565b92505060408401356001600160401b03811115611676575f5ffd5b8401601f81018613611686575f5ffd5b80356001600160401b0381111561169f5761169f61152f565b8060051b6116af60208201611543565b918252602081840181019290810190898411156116ca575f5ffd5b6020850194505b838510156116f0578435808352602095860195909350909101906116d1565b80955050505050509250925092565b5f5f5f60608486031215611711575f5ffd5b505081359360208301359350604090920135919050565b5f81518084528060208401602086015e5f602082860101526020601f19601f83011685010191505092915050565b5f602082016020835280845180835260408501915060408160051b8601019250602086015f5b828110156117e457868503603f19018452815180516001600160a01b031686526020808201519087015260408082015160ff16908701526060908101516080918701829052906117ce90870182611728565b955050602093840193919091019060010161177c565b50929695505050505050565b5f5f5f5f60808587031215611803575f5ffd5b84356001600160401b03811115611818575f5ffd5b61182487828801611573565b94505060208501356001600160401b0381111561183f575f5ffd5b61184b87828801611573565b949794965050505060408301359260600135919050565b5f60208284031215611872575f5ffd5b5035919050565b5f5f6040838503121561188a575f5ffd5b823591506020830135611509816114c5565b6020815260018060a01b0382511660208201526020820151151560408201525f604083015160c060608401526118d560e0840182611728565b90506060840151601f198483030160808501526118f28282611728565b9150506080840151601f198483030160a08501526119108282611728565b91505060a0840151601f198483030160c085015261192e8282611728565b95945050505050565b5f5f5f60608486031215611949575f5ffd5b83359250602084013560ff81168114611960575f5ffd5b915060408401356001600160401b0381111561197a575f5ffd5b61198686828701611573565b9150509250925092565b5f5f5f5f608085870312156119a3575f5ffd5b84356001600160401b038111156119b8575f5ffd5b6119c487828801611573565b94505060208501356001600160401b038111156119df575f5ffd5b6119eb87828801611573565b93505060408501356001600160401b03811115611a06575f5ffd5b611a1287828801611573565b92505060608501356001600160401b03811115611a2d575f5ffd5b611a3987828801611573565b91505092959194509250565b60208152815160208201525f602083015160806040840152611a6a60a0840182611728565b90506040840151601f19848303016060850152611a878282611728565b915050606084015160808401528091505092915050565b5f82518060208501845e5f920191825250919050565b5f60208284031215611ac4575f5ffd5b8151610994816114c5565b5f60208284031215611adf575f5ffd5b5051919050565b634e487b7160e01b5f52601160045260245ffd5b808201808211156104c9576104c9611ae6565b818103818111156104c9576104c9611ae6565b634e487b7160e01b5f52603260045260245ffd5b600181811c90821680611b4857607f821691505b602082108103611b6657634e487b7160e01b5f52602260045260245ffd5b50919050565b60018060a01b0384168152826020820152606060408201525f61192e6060830184611728565b601f82111561075657805f5260205f20601f840160051c81016020851015611bb75750805b601f840160051c820191505b81811015611bd6575f8155600101611bc3565b5050505050565b81516001600160401b03811115611bf657611bf661152f565b611c0a81611c048454611b34565b84611b92565b6020601f821160018114611c3c575f8315611c255750848201515b5f19600385901b1c1916600184901b178455611bd6565b5f84815260208120601f198516915b82811015611c6b5787850151825560209485019460019092019101611c4b565b5084821015611c8857868401515f19600387901b60f8161c191681555b50505050600190811b01905550565b5f60018201611ca857611ca8611ae6565b506001019056fea264697066735822122084df9edd03a5d866960ccf84cd15fbcecd624d1b30f389020502f3afb206095264736f6c634300081c0033",
  "linkReferences": {},
  "deployedLinkReferences": {},
  "immutableReferences": {},
  "inputSourceName": "project/contracts/HoneyTraceStorage.sol",
  "buildInfoId": "solc-0_8_28-035a120922c6d4bf5823c9c54c1be19f6fb76c34"
}