{
  "_format": "hh3-artifact-1",
  "contractName": "HoneyTraceStorage",
  "sourceName": "contracts/HoneyTraceStorage.sol",
  "abi": [
    {
      "inputs": [
        {
          "internalType": "address",
          "name": "_honeyTokenizationAddress",
          "type": "address"
        }
      ],
      "stateMutability": "nonpayable",
      "type": "constructor"
    },
    {
      "inputs": [
        {
          "internalType": "address",
          "name": "owner",
          "type": "address"
        }
      ],
      "name": "OwnableInvalidOwner",
      "type": "error"
    },
    {
      "inputs": [
        {
          "internalType": "address",
          "name": "account",
          "type": "address"
        }
      ],
      "name": "OwnableUnauthorizedAccount",
      "type": "error"
    },
    {
      "inputs": [],
      "name": "authorizationAlreadyApply",
      "type": "error"
    },
    {
      "inputs": [],
      "name": "invalidMerkleProof",
      "type": "error"
    },
    {
      "inputs": [],
      "name": "keyAlreadyClaimed",
      "type": "error"
    },
    {
      "inputs": [],
      "name": "noTokenLeft",
      "type": "error"
    },
    {
      "inputs": [],
      "name": "notAllowedToComment",
      "type": "error"
    },
    {
      "inputs": [],
      "name": "onlyAdminAuthorized",
      "type": "error"
    },
    {
      "inputs": [],
      "name": "producerNotAuthorized",
      "type": "error"
    },
    {
      "anonymous": false,
      "inputs": [
        {
          "indexed": true,
          "internalType": "address",
          "name": "producer",
          "type": "address"
        },
        {
          "indexed": false,
          "internalType": "bool",
          "name": "isAuthorized",
          "type": "bool"
        }
      ],
      "name": "AuthorizationProducer",
      "type": "event"
    },
    {
      "anonymous": false,
      "inputs": [
        {
          "indexed": true,
          "internalType": "address",
          "name": "consumer",
          "type": "address"
        },
        {
          "indexed": true,
          "internalType": "uint256",
          "name": "honeyBatchId",
          "type": "uint256"
        },
        {
          "indexed": false,
          "internalType": "bytes32",
          "name": "keyHash",
          "type": "bytes32"
        }
      ],
      "name": "HoneyTokenClaimed",
      "type": "event"
    },
    {
      "anonymous": false,
      "inputs": [
        {
          "indexed": true,
          "internalType": "address",
          "name": "newAdmin",
          "type": "address"
        }
      ],
      "name": "NewAdmin",
      "type": "event"
    },
    {
      "anonymous": false,
      "inputs": [
        {
          "indexed": true,
          "internalType": "address",
          "name": "consumer",
          "type": "address"
        },
        {
          "indexed": true,
          "internalType": "uint256",
          "name": "honeyBatchId",
          "type": "uint256"
        },
        {
          "indexed": false,
          "internalType": "uint8",
          "name": "rating",
          "type": "uint8"
        }
      ],
      "name": "NewComment",
      "type": "event"
    },
    {
      "anonymous": false,
      "inputs": [
        {
          "indexed": true,
          "internalType": "address",
          "name": "producer",
          "type": "address"
        },
        {
          "indexed": true,
          "internalType": "uint256",
          "name": "honeyBatchId",
          "type": "uint256"
        }
      ],
      "name": "NewHoneyBatch",
      "type": "event"
    },
    {
      "anonymous": false,
      "inputs": [
        {
          "indexed": true,
          "internalType": "address",
          "name": "producer",
          "type": "address"
        }
      ],
      "name": "NewProducer",
      "type": "event"
    },
    {
      "anonymous": false,
      "inputs": [
        {
          "indexed": true,
          "internalType": "address",
          "name": "previousOwner",
          "type": "address"
        },
        {
          "indexed": true,
          "internalType": "address",
          "name": "newOwner",
          "type": "address"
        }
      ],
      "name": "OwnershipTransferred",
      "type": "event"
    },
    {
      "inputs": [
        {
          "internalType": "address",
          "name": "_newAdmin",
          "type": "address"
        }
      ],
      "name": "addAdmin",
      "outputs": [],
      "stateMutability": "nonpayable",
      "type": "function"
    },
    {
      "inputs": [
        {
          "internalType": "uint256",
          "name": "_honeyBatchId",
          "type": "uint256"
        },
        {
          "internalType": "uint8",
          "name": "_rating",
          "type": "uint8"
        },
        {
          "internalType": "string",
          "name": "_metadata",
          "type": "string"
        }
      ],
      "name": "addComment",
      "outputs": [],
      "stateMutability": "nonpayable",
      "type": "function"
    },
    {
      "inputs": [
        {
          "internalType": "string",
          "name": "_honeyType",
          "type": "string"
        },
        {
          "internalType": "string",
          "name": "_metadata",
          "type": "string"
        },
        {
          "internalType": "uint256",
          "name": "_amount",
          "type": "uint256"
        },
        {
          "internalType": "bytes32",
          "name": "_merkleRoot",
          "type": "bytes32"
        }
      ],
      "name": "addHoneyBatch",
      "outputs": [],
      "stateMutability": "nonpayable",
      "type": "function"
    },
    {
      "inputs": [
        {
          "internalType": "string",
          "name": "_name",
          "type": "string"
        },
        {
          "internalType": "string",
          "name": "_location",
          "type": "string"
        },
        {
          "internalType": "string",
          "name": "_companyRegisterNumber",
          "type": "string"
        },
        {
          "internalType": "string",
          "name": "_metadata",
          "type": "string"
        }
      ],
      "name": "addProducer",
      "outputs": [],
      "stateMutability": "nonpayable",
      "type": "function"
    },
    {
      "inputs": [
        {
          "internalType": "address",
          "name": "_producer",
          "type": "address"
        },
        {
          "internalType": "bool",
          "name": "_isAuthorized",
          "type": "bool"
        }
      ],
      "name": "authorizeProducer",
      "outputs": [],
      "stateMutability": "nonpayable",
      "type": "function"
    },
    {
      "inputs": [
        {
          "internalType": "uint256",
          "name": "_honeyBatchId",
          "type": "uint256"
        },
        {
          "internalType": "string",
          "name": "_secretKey",
          "type": "string"
        },
        {
          "internalType": "bytes32[]",
          "name": "_merkleProof",
          "type": "bytes32[]"
        }
      ],
      "name": "claimHoneyToken",
      "outputs": [],
      "stateMutability": "nonpayable",
      "type": "function"
    },
    {
      "inputs": [
        {
          "internalType": "uint256",
          "name": "_id",
          "type": "uint256"
        }
      ],
      "name": "getHoneyBatch",
      "outputs": [
        {
          "components": [
            {
              "internalType": "uint256",
              "name": "id",
              "type": "uint256"
            },
            {
              "internalType": "string",
              "name": "honeyType",
              "type": "string"
            },
            {
              "internalType": "string",
              "name": "metadata",
              "type": "string"
            },
            {
              "internalType": "bytes32",
              "name": "merkleRoot",
              "type": "bytes32"
            },
            {
              "internalType": "uint256",
              "name": "claimedCount",
              "type": "uint256"
            }
          ],
          "internalType": "struct HoneyTraceStorage.HoneyBatch",
          "name": "",
          "type": "tuple"
        }
      ],
      "stateMutability": "view",
      "type": "function"
    },
    {
      "inputs": [
        {
          "internalType": "uint256",
          "name": "_honeyBatchId",
          "type": "uint256"
        }
      ],
      "name": "getHoneyBatchComments",
      "outputs": [
        {
          "components": [
            {
              "internalType": "address",
              "name": "consumer",
              "type": "address"
            },
            {
              "internalType": "uint256",
              "name": "honeyBatchId",
              "type": "uint256"
            },
            {
              "internalType": "uint8",
              "name": "rating",
              "type": "uint8"
            },
            {
              "internalType": "string",
              "name": "metadata",
              "type": "string"
            }
          ],
          "internalType": "struct HoneyTraceStorage.Comment[]",
          "name": "",
          "type": "tuple[]"
        }
      ],
      "stateMutability": "view",
      "type": "function"
    },
    {
      "inputs": [
        {
          "internalType": "address",
          "name": "_address",
          "type": "address"
        }
      ],
      "name": "getProducer",
      "outputs": [
        {
          "components": [
            {
              "internalType": "address",
              "name": "id",
              "type": "address"
            },
            {
              "internalType": "bool",
              "name": "authorized",
              "type": "bool"
            },
            {
              "internalType": "string",
              "name": "name",
              "type": "string"
            },
            {
              "internalType": "string",
              "name": "location",
              "type": "string"
            },
            {
              "internalType": "string",
              "name": "companyRegisterNumber",
              "type": "string"
            },
            {
              "internalType": "string",
              "name": "metadata",
              "type": "string"
            }
          ],
          "internalType": "struct HoneyTraceStorage.Producer",
          "name": "",
          "type": "tuple"
        }
      ],
      "stateMutability": "view",
      "type": "function"
    },
    {
      "inputs": [],
      "name": "honeyTokenization",
      "outputs": [
        {
          "internalType": "contract IHoneyTokenization",
          "name": "",
          "type": "address"
        }
      ],
      "stateMutability": "view",
      "type": "function"
    },
    {
      "inputs": [
        {
          "internalType": "uint256",
          "name": "_honeyBatchId",
          "type": "uint256"
        },
        {
          "internalType": "string",
          "name": "_secretKey",
          "type": "string"
        }
      ],
      "name": "isKeyClaimed",
      "outputs": [
        {
          "internalType": "bool",
          "name": "",
          "type": "bool"
        }
      ],
      "stateMutability": "view",
      "type": "function"
    },
    {
      "inputs": [],
      "name": "owner",
      "outputs": [
        {
          "internalType": "address",
          "name": "",
          "type": "address"
        }
      ],
      "stateMutability": "view",
      "type": "function"
    },
    {
      "inputs": [],
      "name": "renounceOwnership",
      "outputs": [],
      "stateMutability": "nonpayable",
      "type": "function"
    },
    {
      "inputs": [
        {
          "internalType": "address",
          "name": "newOwner",
          "type": "address"
        }
      ],
      "name": "transferOwnership",
      "outputs": [],
      "stateMutability": "nonpayable",
      "type": "function"
    }
  ],
  "bytecode": "0x608060405234801561000f575f5ffd5b5060405161192f38038061192f83398101604081905261002e916100ea565b338061005357604051631e4fbdf760e01b81525f600482015260240160405180910390fd5b61005c8161009b565b50600580546001600160a01b0319166001600160a01b0392909216919091179055335f908152600460205260409020805460ff19166001179055610117565b5f80546001600160a01b038381166001600160a01b0319831681178455604051919092169283917f8be0079c531659141344cd1fd0a4f28419497f9722a3daafe3b4186f6b6457e09190a35050565b5f602082840312156100fa575f5ffd5b81516001600160a01b0381168114610110575f5ffd5b9392505050565b61180b806101245f395ff3fe608060405234801561000f575f5ffd5b50600436106100e5575f3560e01c80638da5cb5b11610088578063c32ab58d11610063578063c32ab58d146101e6578063e152e424146101f9578063f2fde38b1461020c578063f666663b1461021f575f5ffd5b80638da5cb5b146101a35780638e26848a146101b3578063aab147b2146101c6575f5ffd5b8063583f164f116100c3578063583f164f1461014a5780635eadf785146101755780637048027514610188578063715018a61461019b575f5ffd5b80631040eddb146100e957806326892ae1146100fe5780634df637ed14610127575b5f5ffd5b6100fc6100f736600461106e565b61023f565b005b61011161010c3660046110a9565b610322565b60405161011e91906110ee565b60405180910390f35b61013a610135366004611237565b61044e565b604051901515815260200161011e565b60055461015d906001600160a01b031681565b6040516001600160a01b03909116815260200161011e565b6100fc61018336600461127a565b610498565b6100fc610196366004611358565b61072a565b6100fc61077d565b5f546001600160a01b031661015d565b6100fc6101c1366004611373565b610790565b6101d96101d4366004611358565b6108a6565b60405161011e91906113e5565b6100fc6101f4366004611480565b610b71565b6100fc6102073660046114d9565b610cd5565b6100fc61021a366004611358565b610d88565b61023261022d3660046110a9565b610dca565b60405161011e919061158e565b335f9081526004602052604090205460ff1661026e5760405163ace6634560e01b815260040160405180910390fd5b6001600160a01b0382165f90815260016020526040902054811515600160a01b90910460ff161515036102b457604051631fd9ce1160e31b815260040160405180910390fd5b6001600160a01b0382165f81815260016020526040908190208054841515600160a01b0260ff60a01b19909116179055517f4275679677d2d9de02ec363d44169b2620d44e53597b5457f777bae4be99e0db9061031690841515815260200190565b60405180910390a25050565b606060035f8381526020019081526020015f20805480602002602001604051908101604052809291908181526020015f905b82821015610443575f848152602090819020604080516080810182526004860290920180546001600160a01b03168352600181015493830193909352600283015460ff16908201526003820180549192916060840191906103b4906115f1565b80601f01602080910402602001604051908101604052809291908181526020018280546103e0906115f1565b801561042b5780601f106104025761010080835404028352916020019161042b565b820191905f5260205f20905b81548152906001019060200180831161040e57829003601f168201915b50505050508152505081526020019060010190610354565b505050509050919050565b5f5f826040516020016104619190611629565b60408051601f1981840301815291815281516020928301205f87815260068452828120918152925290205460ff1691505092915050565b5f838152600260205260408082206005549151634ef22f7760e11b8152600481018790529092916001600160a01b031690639de45eee90602401602060405180830381865afa1580156104ed573d5f5f3e3d5ffd5b505050506040513d601f19601f82011682018060405250810190610511919061163f565b600554604051627eeac760e11b81526001600160a01b038084166004830152602482018990529293505f929091169062fdd58e90604401602060405180830381865afa158015610563573d5f5f3e3d5ffd5b505050506040513d601f19601f82011682018060405250810190610587919061165a565b90505f81116105a9576040516367a15b2960e01b815260040160405180910390fd5b5f856040516020016105bb9190611629565b60408051601f1981840301815291815281516020928301205f8a81526006845282812082825290935291205490915060ff161561060b576040516306c402dd60e31b815260040160405180910390fd5b61061a85856003015483610f59565b610637576040516371bfbd4760e01b815260040160405180910390fd5b5f8781526006602090815260408083208484529091528120805460ff191660011790556004850180549161066a83611671565b9091555050600554604051637921219560e11b81526001600160a01b038581166004830152336024830152604482018a90526001606483015260a060848301525f60a48301529091169063f242432a9060c4015f604051808303815f87803b1580156106d4575f5ffd5b505af11580156106e6573d5f5f3e3d5ffd5b50506040518381528992503391507f177e38c16407f7d4263d5354c2d05573eeb4b0a8af543b02eb1bd6ad4770bee69060200160405180910390a350505050505050565b610732610f6e565b6001600160a01b0381165f81815260046020526040808220805460ff19166001179055517f71614071b88dee5e0b2ae578a9dd7b2ebbe9ae832ba419dc0242cd065a290b6c9190a250565b610785610f6e565b61078e5f610f9a565b565b335f90815260016020526040902054600160a01b900460ff166107c657604051630decc33b60e41b815260040160405180910390fd5b600554604051631dbedd0d60e21b81525f916001600160a01b0316906376fb7434906107fa90339087908990600401611695565b6020604051808303815f875af1158015610816573d5f5f3e3d5ffd5b505050506040513d601f19601f8201168201806040525081019061083a919061165a565b5f8181526002602052604090208181559091506001810161085b8782611707565b506002810161086a8682611707565b5060038101839055604051829033907fdc5cf2f196c842f34bf2c67dd883b00e9b199322e44c593ee804b2f666a2914c905f90a3505050505050565b6108e86040518060c001604052805f6001600160a01b031681526020015f15158152602001606081526020016060815260200160608152602001606081525090565b6001600160a01b038281165f90815260016020818152604092839020835160c08101855281549586168152600160a01b90950460ff161515918501919091529081018054919284019161093a906115f1565b80601f0160208091040260200160405190810160405280929190818152602001828054610966906115f1565b80156109b15780601f10610988576101008083540402835291602001916109b1565b820191905f5260205f20905b81548152906001019060200180831161099457829003601f168201915b505050505081526020016002820180546109ca906115f1565b80601f01602080910402602001604051908101604052809291908181526020018280546109f6906115f1565b8015610a415780601f10610a1857610100808354040283529160200191610a41565b820191905f5260205f20905b815481529060010190602001808311610a2457829003601f168201915b50505050508152602001600382018054610a5a906115f1565b80601f0160208091040260200160405190810160405280929190818152602001828054610a86906115f1565b8015610ad15780601f10610aa857610100808354040283529160200191610ad1565b820191905f5260205f20905b815481529060010190602001808311610ab457829003601f168201915b50505050508152602001600482018054610aea906115f1565b80601f0160208091040260200160405190810160405280929190818152602001828054610b16906115f1565b8015610b615780601f10610b3857610100808354040283529160200191610b61565b820191905f5260205f20905b815481529060010190602001808311610b4457829003601f168201915b5050505050815250509050919050565b600554604051627eeac760e11b8152336004820152602481018590525f916001600160a01b03169062fdd58e90604401602060405180830381865afa158015610bbc573d5f5f3e3d5ffd5b505050506040513d601f19601f82011682018060405250810190610be0919061165a565b11610bfe57604051635c62ac8960e01b815260040160405180910390fd5b5f838152600360208181526040808420815160808101835233815280840189815260ff89811694830194855260608301898152845460018082018755958a5296909820835160049097020180546001600160a01b0319166001600160a01b03909716969096178655905192850192909255915160028401805460ff19169190921617905592519091820190610c939082611707565b505060405160ff8416815284915033907f3cced9413e252a4eebba16b372679a395c5134d9c44a63746f99faa76d2fc6709060200160405180910390a3505050565b335f90815260016020526040902054600160a01b900460ff16610d0b57604051630decc33b60e41b815260040160405180910390fd5b335f908152600160208190526040909120908101610d298682611707565b5060028101610d388582611707565b5060038101610d478482611707565b5060048101610d568382611707565b5060405133907f8586453cf10c7dfe9b3b6ba95bfb1258ca31a7e45202e79fbc68bbbd06204de2905f90a25050505050565b610d90610f6e565b6001600160a01b038116610dbe57604051631e4fbdf760e01b81525f60048201526024015b60405180910390fd5b610dc781610f9a565b50565b610df96040518060a001604052805f815260200160608152602001606081526020015f81526020015f81525090565b60025f8381526020019081526020015f206040518060a00160405290815f8201548152602001600182018054610e2e906115f1565b80601f0160208091040260200160405190810160405280929190818152602001828054610e5a906115f1565b8015610ea55780601f10610e7c57610100808354040283529160200191610ea5565b820191905f5260205f20905b815481529060010190602001808311610e8857829003601f168201915b50505050508152602001600282018054610ebe906115f1565b80601f0160208091040260200160405190810160405280929190818152602001828054610eea906115f1565b8015610f355780601f10610f0c57610100808354040283529160200191610f35565b820191905f5260205f20905b815481529060010190602001808311610f1857829003601f168201915b50505050508152602001600382015481526020016004820154815250509050919050565b5f82610f658584610fe9565b14949350505050565b5f546001600160a01b0316331461078e5760405163118cdaa760e01b8152336004820152602401610db5565b5f80546001600160a01b038381166001600160a01b0319831681178455604051919092169283917f8be0079c531659141344cd1fd0a4f28419497f9722a3daafe3b4186f6b6457e09190a35050565b5f81815b8451811015611023576110198286838151811061100c5761100c6117c1565b602002602001015161102b565b9150600101610fed565b509392505050565b5f818310611045575f828152602084905260409020611053565b5f8381526020839052604090205b9392505050565b6001600160a01b0381168114610dc7575f5ffd5b5f5f6040838503121561107f575f5ffd5b823561108a8161105a565b91506020830135801515811461109e575f5ffd5b809150509250929050565b5f602082840312156110b9575f5ffd5b5035919050565b5f81518084528060208401602086015e5f602082860101526020601f19601f83011685010191505092915050565b5f602082016020835280845180835260408501915060408160051b8601019250602086015f5b8281101561117c57868503603f19018452815180516001600160a01b031686526020808201519087015260408082015160ff1690870152606090810151608091870182905290611166908701826110c0565b9550506020938401939190910190600101611114565b50929695505050505050565b634e487b7160e01b5f52604160045260245ffd5b604051601f8201601f191681016001600160401b03811182821017156111c4576111c4611188565b604052919050565b5f82601f8301126111db575f5ffd5b81356001600160401b038111156111f4576111f4611188565b611207601f8201601f191660200161119c565b81815284602083860101111561121b575f5ffd5b816020850160208301375f918101602001919091529392505050565b5f5f60408385031215611248575f5ffd5b8235915060208301356001600160401b03811115611264575f5ffd5b611270858286016111cc565b9150509250929050565b5f5f5f6060848603121561128c575f5ffd5b8335925060208401356001600160401b038111156112a8575f5ffd5b6112b4868287016111cc565b92505060408401356001600160401b038111156112cf575f5ffd5b8401601f810186136112df575f5ffd5b80356001600160401b038111156112f8576112f8611188565b8060051b6113086020820161119c565b91825260208184018101929081019089841115611323575f5ffd5b6020850194505b838510156113495784358083526020958601959093509091019061132a565b80955050505050509250925092565b5f60208284031215611368575f5ffd5b81356110538161105a565b5f5f5f5f60808587031215611386575f5ffd5b84356001600160401b0381111561139b575f5ffd5b6113a7878288016111cc565b94505060208501356001600160401b038111156113c2575f5ffd5b6113ce878288016111cc565b949794965050505060408301359260600135919050565b6020815260018060a01b0382511660208201526020820151151560408201525f604083015160c0606084015261141e60e08401826110c0565b90506060840151601f1984830301608085015261143b82826110c0565b9150506080840151601f198483030160a085015261145982826110c0565b91505060a0840151601f198483030160c085015261147782826110c0565b95945050505050565b5f5f5f60608486031215611492575f5ffd5b83359250602084013560ff811681146114a9575f5ffd5b915060408401356001600160401b038111156114c3575f5ffd5b6114cf868287016111cc565b9150509250925092565b5f5f5f5f608085870312156114ec575f5ffd5b84356001600160401b03811115611501575f5ffd5b61150d878288016111cc565b94505060208501356001600160401b03811115611528575f5ffd5b611534878288016111cc565b93505060408501356001600160401b0381111561154f575f5ffd5b61155b878288016111cc565b92505060608501356001600160401b03811115611576575f5ffd5b611582878288016111cc565b91505092959194509250565b60208152815160208201525f602083015160a060408401526115b360c08401826110c0565b90506040840151601f198483030160608501526115d082826110c0565b91505060608401516080840152608084015160a08401528091505092915050565b600181811c9082168061160557607f821691505b60208210810361162357634e487b7160e01b5f52602260045260245ffd5b50919050565b5f82518060208501845e5f920191825250919050565b5f6020828403121561164f575f5ffd5b81516110538161105a565b5f6020828403121561166a575f5ffd5b5051919050565b5f6001820161168e57634e487b7160e01b5f52601160045260245ffd5b5060010190565b60018060a01b0384168152826020820152606060408201525f61147760608301846110c0565b601f82111561170257805f5260205f20601f840160051c810160208510156116e05750805b601f840160051c820191505b818110156116ff575f81556001016116ec565b50505b505050565b81516001600160401b0381111561172057611720611188565b6117348161172e84546115f1565b846116bb565b6020601f821160018114611766575f831561174f5750848201515b5f19600385901b1c1916600184901b1784556116ff565b5f84815260208120601f198516915b828110156117955787850151825560209485019460019092019101611775565b50848210156117b257868401515f19600387901b60f8161c191681555b50505050600190811b01905550565b634e487b7160e01b5f52603260045260245ffdfea264697066735822122058ba5e44517fa5e0c473dced038f1270b81aad2890f2b78935954e4f827f1dbd64736f6c634300081c0033",
  "linkReferences": {},
  "deployedLinkReferences": {},
  "immutableReferences": {},
  "inputSourceName": "project/contracts/HoneyTraceStorage.sol",
  "buildInfoId": "solc-0_8_28-218c8240e252f02d9bcd31bfd1efa8ad04306a63"
}