{
  "_format": "hh3-artifact-1",
  "contractName": "HoneyTraceStorage",
  "sourceName": "contracts/HoneyTraceStorage.sol",
  "abi": [
    {
      "inputs": [
        {
          "internalType": "address",
          "name": "_honeyTokenizationAddress",
          "type": "address"
        }
      ],
      "stateMutability": "nonpayable",
      "type": "constructor"
    },
    {
      "inputs": [
        {
          "internalType": "address",
          "name": "owner",
          "type": "address"
        }
      ],
      "name": "OwnableInvalidOwner",
      "type": "error"
    },
    {
      "inputs": [
        {
          "internalType": "address",
          "name": "account",
          "type": "address"
        }
      ],
      "name": "OwnableUnauthorizedAccount",
      "type": "error"
    },
    {
      "inputs": [],
      "name": "authorizationAlreadyApply",
      "type": "error"
    },
    {
      "inputs": [],
      "name": "invalidMerkleProof",
      "type": "error"
    },
    {
      "inputs": [],
      "name": "keyAlreadyClaimed",
      "type": "error"
    },
    {
      "inputs": [],
      "name": "noTokenLeft",
      "type": "error"
    },
    {
      "inputs": [],
      "name": "notAllowedToComment",
      "type": "error"
    },
    {
      "inputs": [],
      "name": "onlyAdminAuthorized",
      "type": "error"
    },
    {
      "inputs": [],
      "name": "producerNotAuthorized",
      "type": "error"
    },
    {
      "anonymous": false,
      "inputs": [
        {
          "indexed": true,
          "internalType": "address",
          "name": "producer",
          "type": "address"
        },
        {
          "indexed": false,
          "internalType": "bool",
          "name": "isAuthorized",
          "type": "bool"
        }
      ],
      "name": "AuthorizationProducer",
      "type": "event"
    },
    {
      "anonymous": false,
      "inputs": [
        {
          "indexed": true,
          "internalType": "address",
          "name": "consumer",
          "type": "address"
        },
        {
          "indexed": true,
          "internalType": "uint256",
          "name": "honeyBatchId",
          "type": "uint256"
        },
        {
          "indexed": false,
          "internalType": "bytes32",
          "name": "keyHash",
          "type": "bytes32"
        }
      ],
      "name": "HoneyTokenClaimed",
      "type": "event"
    },
    {
      "anonymous": false,
      "inputs": [
        {
          "indexed": true,
          "internalType": "address",
          "name": "newAdmin",
          "type": "address"
        }
      ],
      "name": "NewAdmin",
      "type": "event"
    },
    {
      "anonymous": false,
      "inputs": [
        {
          "indexed": true,
          "internalType": "address",
          "name": "consumer",
          "type": "address"
        },
        {
          "indexed": true,
          "internalType": "uint256",
          "name": "honeyBatchId",
          "type": "uint256"
        },
        {
          "indexed": false,
          "internalType": "uint8",
          "name": "rating",
          "type": "uint8"
        }
      ],
      "name": "NewComment",
      "type": "event"
    },
    {
      "anonymous": false,
      "inputs": [
        {
          "indexed": true,
          "internalType": "address",
          "name": "producer",
          "type": "address"
        },
        {
          "indexed": true,
          "internalType": "uint256",
          "name": "honeyBatchId",
          "type": "uint256"
        }
      ],
      "name": "NewHoneyBatch",
      "type": "event"
    },
    {
      "anonymous": false,
      "inputs": [
        {
          "indexed": true,
          "internalType": "address",
          "name": "producer",
          "type": "address"
        }
      ],
      "name": "NewProducer",
      "type": "event"
    },
    {
      "anonymous": false,
      "inputs": [
        {
          "indexed": true,
          "internalType": "address",
          "name": "previousOwner",
          "type": "address"
        },
        {
          "indexed": true,
          "internalType": "address",
          "name": "newOwner",
          "type": "address"
        }
      ],
      "name": "OwnershipTransferred",
      "type": "event"
    },
    {
      "inputs": [
        {
          "internalType": "address",
          "name": "_newAdmin",
          "type": "address"
        }
      ],
      "name": "addAdmin",
      "outputs": [],
      "stateMutability": "nonpayable",
      "type": "function"
    },
    {
      "inputs": [
        {
          "internalType": "uint256",
          "name": "_honeyBatchId",
          "type": "uint256"
        },
        {
          "internalType": "uint8",
          "name": "_rating",
          "type": "uint8"
        },
        {
          "internalType": "string",
          "name": "_metadata",
          "type": "string"
        }
      ],
      "name": "addComment",
      "outputs": [],
      "stateMutability": "nonpayable",
      "type": "function"
    },
    {
      "inputs": [
        {
          "internalType": "string",
          "name": "_honeyType",
          "type": "string"
        },
        {
          "internalType": "string",
          "name": "_metadata",
          "type": "string"
        },
        {
          "internalType": "uint256",
          "name": "_amount",
          "type": "uint256"
        },
        {
          "internalType": "bytes32",
          "name": "_merkleRoot",
          "type": "bytes32"
        }
      ],
      "name": "addHoneyBatch",
      "outputs": [],
      "stateMutability": "nonpayable",
      "type": "function"
    },
    {
      "inputs": [
        {
          "internalType": "string",
          "name": "_name",
          "type": "string"
        },
        {
          "internalType": "string",
          "name": "_location",
          "type": "string"
        },
        {
          "internalType": "string",
          "name": "_companyRegisterNumber",
          "type": "string"
        },
        {
          "internalType": "string",
          "name": "_metadata",
          "type": "string"
        }
      ],
      "name": "addProducer",
      "outputs": [],
      "stateMutability": "nonpayable",
      "type": "function"
    },
    {
      "inputs": [
        {
          "internalType": "address",
          "name": "_producer",
          "type": "address"
        },
        {
          "internalType": "bool",
          "name": "_isAuthorized",
          "type": "bool"
        }
      ],
      "name": "authorizeProducer",
      "outputs": [],
      "stateMutability": "nonpayable",
      "type": "function"
    },
    {
      "inputs": [
        {
          "internalType": "uint256",
          "name": "_honeyBatchId",
          "type": "uint256"
        },
        {
          "internalType": "string",
          "name": "_secretKey",
          "type": "string"
        },
        {
          "internalType": "bytes32[]",
          "name": "_merkleProof",
          "type": "bytes32[]"
        }
      ],
      "name": "claimHoneyToken",
      "outputs": [],
      "stateMutability": "nonpayable",
      "type": "function"
    },
    {
      "inputs": [
        {
          "internalType": "uint256",
          "name": "_id",
          "type": "uint256"
        }
      ],
      "name": "getHoneyBatch",
      "outputs": [
        {
          "components": [
            {
              "internalType": "uint256",
              "name": "id",
              "type": "uint256"
            },
            {
              "internalType": "string",
              "name": "honeyType",
              "type": "string"
            },
            {
              "internalType": "string",
              "name": "metadata",
              "type": "string"
            },
            {
              "internalType": "bytes32",
              "name": "merkleRoot",
              "type": "bytes32"
            },
            {
              "internalType": "uint256",
              "name": "totalAmount",
              "type": "uint256"
            },
            {
              "internalType": "uint256",
              "name": "claimedCount",
              "type": "uint256"
            }
          ],
          "internalType": "struct HoneyTraceStorage.HoneyBatch",
          "name": "",
          "type": "tuple"
        }
      ],
      "stateMutability": "view",
      "type": "function"
    },
    {
      "inputs": [
        {
          "internalType": "uint256",
          "name": "_honeyBatchId",
          "type": "uint256"
        }
      ],
      "name": "getHoneyBatchComments",
      "outputs": [
        {
          "components": [
            {
              "internalType": "address",
              "name": "consumer",
              "type": "address"
            },
            {
              "internalType": "uint256",
              "name": "honeyBatchId",
              "type": "uint256"
            },
            {
              "internalType": "uint8",
              "name": "rating",
              "type": "uint8"
            },
            {
              "internalType": "string",
              "name": "metadata",
              "type": "string"
            }
          ],
          "internalType": "struct HoneyTraceStorage.Comment[]",
          "name": "",
          "type": "tuple[]"
        }
      ],
      "stateMutability": "view",
      "type": "function"
    },
    {
      "inputs": [
        {
          "internalType": "address",
          "name": "_address",
          "type": "address"
        }
      ],
      "name": "getProducer",
      "outputs": [
        {
          "components": [
            {
              "internalType": "address",
              "name": "id",
              "type": "address"
            },
            {
              "internalType": "bool",
              "name": "authorized",
              "type": "bool"
            },
            {
              "internalType": "string",
              "name": "name",
              "type": "string"
            },
            {
              "internalType": "string",
              "name": "location",
              "type": "string"
            },
            {
              "internalType": "string",
              "name": "companyRegisterNumber",
              "type": "string"
            },
            {
              "internalType": "string",
              "name": "metadata",
              "type": "string"
            }
          ],
          "internalType": "struct HoneyTraceStorage.Producer",
          "name": "",
          "type": "tuple"
        }
      ],
      "stateMutability": "view",
      "type": "function"
    },
    {
      "inputs": [],
      "name": "honeyTokenization",
      "outputs": [
        {
          "internalType": "contract IHoneyTokenization",
          "name": "",
          "type": "address"
        }
      ],
      "stateMutability": "view",
      "type": "function"
    },
    {
      "inputs": [
        {
          "internalType": "uint256",
          "name": "_honeyBatchId",
          "type": "uint256"
        },
        {
          "internalType": "string",
          "name": "_secretKey",
          "type": "string"
        }
      ],
      "name": "isKeyClaimed",
      "outputs": [
        {
          "internalType": "bool",
          "name": "",
          "type": "bool"
        }
      ],
      "stateMutability": "view",
      "type": "function"
    },
    {
      "inputs": [],
      "name": "owner",
      "outputs": [
        {
          "internalType": "address",
          "name": "",
          "type": "address"
        }
      ],
      "stateMutability": "view",
      "type": "function"
    },
    {
      "inputs": [],
      "name": "renounceOwnership",
      "outputs": [],
      "stateMutability": "nonpayable",
      "type": "function"
    },
    {
      "inputs": [
        {
          "internalType": "address",
          "name": "newOwner",
          "type": "address"
        }
      ],
      "name": "transferOwnership",
      "outputs": [],
      "stateMutability": "nonpayable",
      "type": "function"
    }
  ],
  "bytecode": "0x608060405234801561000f575f5ffd5b506040516118e43803806118e483398101604081905261002e916100ea565b338061005357604051631e4fbdf760e01b81525f600482015260240160405180910390fd5b61005c8161009b565b50600580546001600160a01b0319166001600160a01b0392909216919091179055335f908152600460205260409020805460ff19166001179055610117565b5f80546001600160a01b038381166001600160a01b0319831681178455604051919092169283917f8be0079c531659141344cd1fd0a4f28419497f9722a3daafe3b4186f6b6457e09190a35050565b5f602082840312156100fa575f5ffd5b81516001600160a01b0381168114610110575f5ffd5b9392505050565b6117c0806101245f395ff3fe608060405234801561000f575f5ffd5b50600436106100e5575f3560e01c80638da5cb5b11610088578063c32ab58d11610063578063c32ab58d146101e6578063e152e424146101f9578063f2fde38b1461020c578063f666663b1461021f575f5ffd5b80638da5cb5b146101a35780638e26848a146101b3578063aab147b2146101c6575f5ffd5b8063583f164f116100c3578063583f164f1461014a5780635eadf785146101755780637048027514610188578063715018a61461019b575f5ffd5b80631040eddb146100e957806326892ae1146100fe5780634df637ed14610127575b5f5ffd5b6100fc6100f736600461101e565b61023f565b005b61011161010c366004611059565b610322565b60405161011e919061109e565b60405180910390f35b61013a6101353660046111e7565b61044e565b604051901515815260200161011e565b60055461015d906001600160a01b031681565b6040516001600160a01b03909116815260200161011e565b6100fc61018336600461122a565b610499565b6100fc610196366004611308565b6106c3565b6100fc610716565b5f546001600160a01b031661015d565b6100fc6101c1366004611323565b610729565b6101d96101d4366004611308565b610846565b60405161011e9190611395565b6100fc6101f4366004611430565b610b11565b6100fc610207366004611489565b610c75565b6100fc61021a366004611308565b610d28565b61023261022d366004611059565b610d6a565b60405161011e919061153e565b335f9081526004602052604090205460ff1661026e5760405163ace6634560e01b815260040160405180910390fd5b6001600160a01b0382165f90815260016020526040902054811515600160a01b90910460ff161515036102b457604051631fd9ce1160e31b815260040160405180910390fd5b6001600160a01b0382165f81815260016020526040908190208054841515600160a01b0260ff60a01b19909116179055517f4275679677d2d9de02ec363d44169b2620d44e53597b5457f777bae4be99e0db9061031690841515815260200190565b60405180910390a25050565b606060035f8381526020019081526020015f20805480602002602001604051908101604052809291908181526020015f905b82821015610443575f848152602090819020604080516080810182526004860290920180546001600160a01b03168352600181015493830193909352600283015460ff16908201526003820180549192916060840191906103b4906115ab565b80601f01602080910402602001604051908101604052809291908181526020018280546103e0906115ab565b801561042b5780601f106104025761010080835404028352916020019161042b565b820191905f5260205f20905b81548152906001019060200180831161040e57829003601f168201915b50505050508152505081526020019060010190610354565b505050509050919050565b5f5f8260405160200161046191906115e3565b60408051601f1981840301815291815281516020928301205f87815260068452828120918152925290205460ff169150505b92915050565b5f83815260026020526040902060048101546005820154106104ce576040516367a15b2960e01b815260040160405180910390fd5b5f836040516020016104e091906115e3565b60408051601f1981840301815291815281516020928301205f8881526006845282812082825290935291205490915060ff1615610530576040516306c402dd60e31b815260040160405180910390fd5b61053f83836003015483610f09565b61055c576040516371bfbd4760e01b815260040160405180910390fd5b5f8581526006602090815260408083208484529091528120805460ff19166001908117909155600584018054919290916105979084906115f9565b9091555050600554604051634ef22f7760e11b8152600481018790525f916001600160a01b031690639de45eee90602401602060405180830381865afa1580156105e3573d5f5f3e3d5ffd5b505050506040513d601f19601f820116820180604052508101906106079190611618565b600554604051637921219560e11b81526001600160a01b038084166004830152336024830152604482018a90526001606483015260a060848301525f60a483015292935091169063f242432a9060c4015f604051808303815f87803b15801561066e575f5ffd5b505af1158015610680573d5f5f3e3d5ffd5b50506040518481528892503391507f177e38c16407f7d4263d5354c2d05573eeb4b0a8af543b02eb1bd6ad4770bee69060200160405180910390a3505050505050565b6106cb610f1e565b6001600160a01b0381165f81815260046020526040808220805460ff19166001179055517f71614071b88dee5e0b2ae578a9dd7b2ebbe9ae832ba419dc0242cd065a290b6c9190a250565b61071e610f1e565b6107275f610f4a565b565b335f90815260016020526040902054600160a01b900460ff1661075f57604051630decc33b60e41b815260040160405180910390fd5b600554604051631dbedd0d60e21b81525f916001600160a01b0316906376fb74349061079390339087908990600401611633565b6020604051808303815f875af11580156107af573d5f5f3e3d5ffd5b505050506040513d601f19601f820116820180604052508101906107d39190611659565b5f818152600260205260409020818155909150600181016107f487826116bc565b506002810161080386826116bc565b506003810183905560048101849055604051829033907fdc5cf2f196c842f34bf2c67dd883b00e9b199322e44c593ee804b2f666a2914c905f90a3505050505050565b6108886040518060c001604052805f6001600160a01b031681526020015f15158152602001606081526020016060815260200160608152602001606081525090565b6001600160a01b038281165f90815260016020818152604092839020835160c08101855281549586168152600160a01b90950460ff16151591850191909152908101805491928401916108da906115ab565b80601f0160208091040260200160405190810160405280929190818152602001828054610906906115ab565b80156109515780601f1061092857610100808354040283529160200191610951565b820191905f5260205f20905b81548152906001019060200180831161093457829003601f168201915b5050505050815260200160028201805461096a906115ab565b80601f0160208091040260200160405190810160405280929190818152602001828054610996906115ab565b80156109e15780601f106109b8576101008083540402835291602001916109e1565b820191905f5260205f20905b8154815290600101906020018083116109c457829003601f168201915b505050505081526020016003820180546109fa906115ab565b80601f0160208091040260200160405190810160405280929190818152602001828054610a26906115ab565b8015610a715780601f10610a4857610100808354040283529160200191610a71565b820191905f5260205f20905b815481529060010190602001808311610a5457829003601f168201915b50505050508152602001600482018054610a8a906115ab565b80601f0160208091040260200160405190810160405280929190818152602001828054610ab6906115ab565b8015610b015780601f10610ad857610100808354040283529160200191610b01565b820191905f5260205f20905b815481529060010190602001808311610ae457829003601f168201915b5050505050815250509050919050565b600554604051627eeac760e11b8152336004820152602481018590525f916001600160a01b03169062fdd58e90604401602060405180830381865afa158015610b5c573d5f5f3e3d5ffd5b505050506040513d601f19601f82011682018060405250810190610b809190611659565b11610b9e57604051635c62ac8960e01b815260040160405180910390fd5b5f838152600360208181526040808420815160808101835233815280840189815260ff89811694830194855260608301898152845460018082018755958a5296909820835160049097020180546001600160a01b0319166001600160a01b03909716969096178655905192850192909255915160028401805460ff19169190921617905592519091820190610c3390826116bc565b505060405160ff8416815284915033907f3cced9413e252a4eebba16b372679a395c5134d9c44a63746f99faa76d2fc6709060200160405180910390a3505050565b335f90815260016020526040902054600160a01b900460ff16610cab57604051630decc33b60e41b815260040160405180910390fd5b335f908152600160208190526040909120908101610cc986826116bc565b5060028101610cd885826116bc565b5060038101610ce784826116bc565b5060048101610cf683826116bc565b5060405133907f8586453cf10c7dfe9b3b6ba95bfb1258ca31a7e45202e79fbc68bbbd06204de2905f90a25050505050565b610d30610f1e565b6001600160a01b038116610d5e57604051631e4fbdf760e01b81525f60048201526024015b60405180910390fd5b610d6781610f4a565b50565b610d9f6040518060c001604052805f815260200160608152602001606081526020015f81526020015f81526020015f81525090565b60025f8381526020019081526020015f206040518060c00160405290815f8201548152602001600182018054610dd4906115ab565b80601f0160208091040260200160405190810160405280929190818152602001828054610e00906115ab565b8015610e4b5780601f10610e2257610100808354040283529160200191610e4b565b820191905f5260205f20905b815481529060010190602001808311610e2e57829003601f168201915b50505050508152602001600282018054610e64906115ab565b80601f0160208091040260200160405190810160405280929190818152602001828054610e90906115ab565b8015610edb5780601f10610eb257610100808354040283529160200191610edb565b820191905f5260205f20905b815481529060010190602001808311610ebe57829003601f168201915b5050505050815260200160038201548152602001600482015481526020016005820154815250509050919050565b5f82610f158584610f99565b14949350505050565b5f546001600160a01b031633146107275760405163118cdaa760e01b8152336004820152602401610d55565b5f80546001600160a01b038381166001600160a01b0319831681178455604051919092169283917f8be0079c531659141344cd1fd0a4f28419497f9722a3daafe3b4186f6b6457e09190a35050565b5f81815b8451811015610fd357610fc982868381518110610fbc57610fbc611776565b6020026020010151610fdb565b9150600101610f9d565b509392505050565b5f818310610ff5575f828152602084905260409020611003565b5f8381526020839052604090205b9392505050565b6001600160a01b0381168114610d67575f5ffd5b5f5f6040838503121561102f575f5ffd5b823561103a8161100a565b91506020830135801515811461104e575f5ffd5b809150509250929050565b5f60208284031215611069575f5ffd5b5035919050565b5f81518084528060208401602086015e5f602082860101526020601f19601f83011685010191505092915050565b5f602082016020835280845180835260408501915060408160051b8601019250602086015f5b8281101561112c57868503603f19018452815180516001600160a01b031686526020808201519087015260408082015160ff169087015260609081015160809187018290529061111690870182611070565b95505060209384019391909101906001016110c4565b50929695505050505050565b634e487b7160e01b5f52604160045260245ffd5b604051601f8201601f191681016001600160401b038111828210171561117457611174611138565b604052919050565b5f82601f83011261118b575f5ffd5b81356001600160401b038111156111a4576111a4611138565b6111b7601f8201601f191660200161114c565b8181528460208386010111156111cb575f5ffd5b816020850160208301375f918101602001919091529392505050565b5f5f604083850312156111f8575f5ffd5b8235915060208301356001600160401b03811115611214575f5ffd5b6112208582860161117c565b9150509250929050565b5f5f5f6060848603121561123c575f5ffd5b8335925060208401356001600160401b03811115611258575f5ffd5b6112648682870161117c565b92505060408401356001600160401b0381111561127f575f5ffd5b8401601f8101861361128f575f5ffd5b80356001600160401b038111156112a8576112a8611138565b8060051b6112b86020820161114c565b918252602081840181019290810190898411156112d3575f5ffd5b6020850194505b838510156112f9578435808352602095860195909350909101906112da565b80955050505050509250925092565b5f60208284031215611318575f5ffd5b81356110038161100a565b5f5f5f5f60808587031215611336575f5ffd5b84356001600160401b0381111561134b575f5ffd5b6113578782880161117c565b94505060208501356001600160401b03811115611372575f5ffd5b61137e8782880161117c565b949794965050505060408301359260600135919050565b6020815260018060a01b0382511660208201526020820151151560408201525f604083015160c060608401526113ce60e0840182611070565b90506060840151601f198483030160808501526113eb8282611070565b9150506080840151601f198483030160a08501526114098282611070565b91505060a0840151601f198483030160c08501526114278282611070565b95945050505050565b5f5f5f60608486031215611442575f5ffd5b83359250602084013560ff81168114611459575f5ffd5b915060408401356001600160401b03811115611473575f5ffd5b61147f8682870161117c565b9150509250925092565b5f5f5f5f6080858703121561149c575f5ffd5b84356001600160401b038111156114b1575f5ffd5b6114bd8782880161117c565b94505060208501356001600160401b038111156114d8575f5ffd5b6114e48782880161117c565b93505060408501356001600160401b038111156114ff575f5ffd5b61150b8782880161117c565b92505060608501356001600160401b03811115611526575f5ffd5b6115328782880161117c565b91505092959194509250565b60208152815160208201525f602083015160c0604084015261156360e0840182611070565b90506040840151601f198483030160608501526115808282611070565b91505060608401516080840152608084015160a084015260a084015160c08401528091505092915050565b600181811c908216806115bf57607f821691505b6020821081036115dd57634e487b7160e01b5f52602260045260245ffd5b50919050565b5f82518060208501845e5f920191825250919050565b8082018082111561049357634e487b7160e01b5f52601160045260245ffd5b5f60208284031215611628575f5ffd5b81516110038161100a565b60018060a01b0384168152826020820152606060408201525f6114276060830184611070565b5f60208284031215611669575f5ffd5b5051919050565b601f8211156116b757805f5260205f20601f840160051c810160208510156116955750805b601f840160051c820191505b818110156116b4575f81556001016116a1565b50505b505050565b81516001600160401b038111156116d5576116d5611138565b6116e9816116e384546115ab565b84611670565b6020601f82116001811461171b575f83156117045750848201515b5f19600385901b1c1916600184901b1784556116b4565b5f84815260208120601f198516915b8281101561174a578785015182556020948501946001909201910161172a565b508482101561176757868401515f19600387901b60f8161c191681555b50505050600190811b01905550565b634e487b7160e01b5f52603260045260245ffdfea2646970667358221220524bfe07b356a96314f622a9252645506840be6c6458b044ccf070950a0f3d0864736f6c634300081c0033",
  "linkReferences": {},
  "deployedLinkReferences": {},
  "immutableReferences": {},
  "inputSourceName": "project/contracts/HoneyTraceStorage.sol",
  "buildInfoId": "solc-0_8_28-6dc640760be025304b54604e20b293b9bdc71ea2"
}