{
  "_format": "hh3-artifact-1",
  "contractName": "HoneyTraceStorage",
  "sourceName": "contracts/HoneyTraceStorage.sol",
  "abi": [
    {
      "inputs": [
        {
          "internalType": "address",
          "name": "_honeyTokenizationAddress",
          "type": "address"
        }
      ],
      "stateMutability": "nonpayable",
      "type": "constructor"
    },
    {
      "inputs": [
        {
          "internalType": "address",
          "name": "owner",
          "type": "address"
        }
      ],
      "name": "OwnableInvalidOwner",
      "type": "error"
    },
    {
      "inputs": [
        {
          "internalType": "address",
          "name": "account",
          "type": "address"
        }
      ],
      "name": "OwnableUnauthorizedAccount",
      "type": "error"
    },
    {
      "inputs": [],
      "name": "authorizationAlreadyApply",
      "type": "error"
    },
    {
      "inputs": [],
      "name": "invalidMerkleProof",
      "type": "error"
    },
    {
      "inputs": [],
      "name": "keyAlreadyClaimed",
      "type": "error"
    },
    {
      "inputs": [],
      "name": "noTokenLeft",
      "type": "error"
    },
    {
      "inputs": [],
      "name": "notAllowedToComment",
      "type": "error"
    },
    {
      "inputs": [],
      "name": "onlyAdminAuthorized",
      "type": "error"
    },
    {
      "inputs": [],
      "name": "producerNotAuthorized",
      "type": "error"
    },
    {
      "anonymous": false,
      "inputs": [
        {
          "indexed": true,
          "internalType": "address",
          "name": "producer",
          "type": "address"
        },
        {
          "indexed": false,
          "internalType": "bool",
          "name": "isAuthorized",
          "type": "bool"
        }
      ],
      "name": "AuthorizationProducer",
      "type": "event"
    },
    {
      "anonymous": false,
      "inputs": [
        {
          "indexed": true,
          "internalType": "address",
          "name": "consumer",
          "type": "address"
        },
        {
          "indexed": true,
          "internalType": "uint256",
          "name": "honeyBatchId",
          "type": "uint256"
        },
        {
          "indexed": false,
          "internalType": "bytes32",
          "name": "keyHash",
          "type": "bytes32"
        }
      ],
      "name": "HoneyTokenClaimed",
      "type": "event"
    },
    {
      "anonymous": false,
      "inputs": [
        {
          "indexed": true,
          "internalType": "address",
          "name": "newAdmin",
          "type": "address"
        }
      ],
      "name": "NewAdmin",
      "type": "event"
    },
    {
      "anonymous": false,
      "inputs": [
        {
          "indexed": true,
          "internalType": "address",
          "name": "consumer",
          "type": "address"
        },
        {
          "indexed": true,
          "internalType": "uint256",
          "name": "honeyBatchId",
          "type": "uint256"
        },
        {
          "indexed": false,
          "internalType": "uint8",
          "name": "rating",
          "type": "uint8"
        }
      ],
      "name": "NewComment",
      "type": "event"
    },
    {
      "anonymous": false,
      "inputs": [
        {
          "indexed": true,
          "internalType": "address",
          "name": "producer",
          "type": "address"
        },
        {
          "indexed": true,
          "internalType": "uint256",
          "name": "honeyBatchId",
          "type": "uint256"
        }
      ],
      "name": "NewHoneyBatch",
      "type": "event"
    },
    {
      "anonymous": false,
      "inputs": [
        {
          "indexed": true,
          "internalType": "address",
          "name": "producer",
          "type": "address"
        }
      ],
      "name": "NewProducer",
      "type": "event"
    },
    {
      "anonymous": false,
      "inputs": [
        {
          "indexed": true,
          "internalType": "address",
          "name": "previousOwner",
          "type": "address"
        },
        {
          "indexed": true,
          "internalType": "address",
          "name": "newOwner",
          "type": "address"
        }
      ],
      "name": "OwnershipTransferred",
      "type": "event"
    },
    {
      "inputs": [
        {
          "internalType": "address",
          "name": "_newAdmin",
          "type": "address"
        }
      ],
      "name": "addAdmin",
      "outputs": [],
      "stateMutability": "nonpayable",
      "type": "function"
    },
    {
      "inputs": [
        {
          "internalType": "uint256",
          "name": "_honeyBatchId",
          "type": "uint256"
        },
        {
          "internalType": "uint8",
          "name": "_rating",
          "type": "uint8"
        },
        {
          "internalType": "string",
          "name": "_metadata",
          "type": "string"
        }
      ],
      "name": "addComment",
      "outputs": [],
      "stateMutability": "nonpayable",
      "type": "function"
    },
    {
      "inputs": [
        {
          "internalType": "string",
          "name": "_honeyType",
          "type": "string"
        },
        {
          "internalType": "string",
          "name": "_metadata",
          "type": "string"
        },
        {
          "internalType": "uint256",
          "name": "_amount",
          "type": "uint256"
        },
        {
          "internalType": "bytes32",
          "name": "_merkleRoot",
          "type": "bytes32"
        }
      ],
      "name": "addHoneyBatch",
      "outputs": [],
      "stateMutability": "nonpayable",
      "type": "function"
    },
    {
      "inputs": [
        {
          "internalType": "string",
          "name": "_name",
          "type": "string"
        },
        {
          "internalType": "string",
          "name": "_location",
          "type": "string"
        },
        {
          "internalType": "string",
          "name": "_companyRegisterNumber",
          "type": "string"
        },
        {
          "internalType": "string",
          "name": "_metadata",
          "type": "string"
        }
      ],
      "name": "addProducer",
      "outputs": [],
      "stateMutability": "nonpayable",
      "type": "function"
    },
    {
      "inputs": [
        {
          "internalType": "address",
          "name": "",
          "type": "address"
        }
      ],
      "name": "admins",
      "outputs": [
        {
          "internalType": "bool",
          "name": "",
          "type": "bool"
        }
      ],
      "stateMutability": "view",
      "type": "function"
    },
    {
      "inputs": [
        {
          "internalType": "address",
          "name": "_producer",
          "type": "address"
        },
        {
          "internalType": "bool",
          "name": "_isAuthorized",
          "type": "bool"
        }
      ],
      "name": "authorizeProducer",
      "outputs": [],
      "stateMutability": "nonpayable",
      "type": "function"
    },
    {
      "inputs": [
        {
          "internalType": "uint256",
          "name": "_honeyBatchId",
          "type": "uint256"
        },
        {
          "internalType": "string",
          "name": "_secretKey",
          "type": "string"
        },
        {
          "internalType": "bytes32[]",
          "name": "_merkleProof",
          "type": "bytes32[]"
        }
      ],
      "name": "claimHoneyToken",
      "outputs": [],
      "stateMutability": "nonpayable",
      "type": "function"
    },
    {
      "inputs": [
        {
          "internalType": "uint256",
          "name": "_id",
          "type": "uint256"
        }
      ],
      "name": "getHoneyBatch",
      "outputs": [
        {
          "components": [
            {
              "internalType": "uint256",
              "name": "id",
              "type": "uint256"
            },
            {
              "internalType": "string",
              "name": "honeyType",
              "type": "string"
            },
            {
              "internalType": "string",
              "name": "metadata",
              "type": "string"
            },
            {
              "internalType": "bytes32",
              "name": "merkleRoot",
              "type": "bytes32"
            }
          ],
          "internalType": "struct HoneyTraceStorage.HoneyBatch",
          "name": "",
          "type": "tuple"
        }
      ],
      "stateMutability": "view",
      "type": "function"
    },
    {
      "inputs": [
        {
          "internalType": "uint256",
          "name": "_honeyBatchId",
          "type": "uint256"
        }
      ],
      "name": "getHoneyBatchComments",
      "outputs": [
        {
          "components": [
            {
              "internalType": "address",
              "name": "consumer",
              "type": "address"
            },
            {
              "internalType": "uint256",
              "name": "honeyBatchId",
              "type": "uint256"
            },
            {
              "internalType": "uint8",
              "name": "rating",
              "type": "uint8"
            },
            {
              "internalType": "string",
              "name": "metadata",
              "type": "string"
            }
          ],
          "internalType": "struct HoneyTraceStorage.Comment[]",
          "name": "",
          "type": "tuple[]"
        }
      ],
      "stateMutability": "view",
      "type": "function"
    },
    {
      "inputs": [
        {
          "internalType": "address",
          "name": "_address",
          "type": "address"
        }
      ],
      "name": "getProducer",
      "outputs": [
        {
          "components": [
            {
              "internalType": "address",
              "name": "id",
              "type": "address"
            },
            {
              "internalType": "bool",
              "name": "authorized",
              "type": "bool"
            },
            {
              "internalType": "string",
              "name": "name",
              "type": "string"
            },
            {
              "internalType": "string",
              "name": "location",
              "type": "string"
            },
            {
              "internalType": "string",
              "name": "companyRegisterNumber",
              "type": "string"
            },
            {
              "internalType": "string",
              "name": "metadata",
              "type": "string"
            }
          ],
          "internalType": "struct HoneyTraceStorage.Producer",
          "name": "",
          "type": "tuple"
        }
      ],
      "stateMutability": "view",
      "type": "function"
    },
    {
      "inputs": [],
      "name": "honeyTokenization",
      "outputs": [
        {
          "internalType": "contract IHoneyTokenization",
          "name": "",
          "type": "address"
        }
      ],
      "stateMutability": "view",
      "type": "function"
    },
    {
      "inputs": [
        {
          "internalType": "address",
          "name": "_address",
          "type": "address"
        }
      ],
      "name": "isAdmin",
      "outputs": [
        {
          "internalType": "bool",
          "name": "",
          "type": "bool"
        }
      ],
      "stateMutability": "view",
      "type": "function"
    },
    {
      "inputs": [
        {
          "internalType": "uint256",
          "name": "_honeyBatchId",
          "type": "uint256"
        },
        {
          "internalType": "string",
          "name": "_secretKey",
          "type": "string"
        }
      ],
      "name": "isKeyClaimed",
      "outputs": [
        {
          "internalType": "bool",
          "name": "",
          "type": "bool"
        }
      ],
      "stateMutability": "view",
      "type": "function"
    },
    {
      "inputs": [],
      "name": "owner",
      "outputs": [
        {
          "internalType": "address",
          "name": "",
          "type": "address"
        }
      ],
      "stateMutability": "view",
      "type": "function"
    },
    {
      "inputs": [],
      "name": "renounceOwnership",
      "outputs": [],
      "stateMutability": "nonpayable",
      "type": "function"
    },
    {
      "inputs": [
        {
          "internalType": "address",
          "name": "newOwner",
          "type": "address"
        }
      ],
      "name": "transferOwnership",
      "outputs": [],
      "stateMutability": "nonpayable",
      "type": "function"
    }
  ],
  "bytecode": "0x608060405234801561000f575f5ffd5b5060405161193f38038061193f83398101604081905261002e916100ea565b338061005357604051631e4fbdf760e01b81525f600482015260240160405180910390fd5b61005c8161009b565b50600580546001600160a01b0319166001600160a01b0392909216919091179055335f908152600460205260409020805460ff19166001179055610117565b5f80546001600160a01b038381166001600160a01b0319831681178455604051919092169283917f8be0079c531659141344cd1fd0a4f28419497f9722a3daafe3b4186f6b6457e09190a35050565b5f602082840312156100fa575f5ffd5b81516001600160a01b0381168114610110575f5ffd5b9392505050565b61181b806101245f395ff3fe608060405234801561000f575f5ffd5b50600436106100fb575f3560e01c8063715018a611610093578063c32ab58d11610063578063c32ab58d14610245578063e152e42414610258578063f2fde38b1461026b578063f666663b1461027e575f5ffd5b8063715018a6146101fa5780638da5cb5b146102025780638e26848a14610212578063aab147b214610225575f5ffd5b80634df637ed116100ce5780634df637ed14610196578063583f164f146101a95780635eadf785146101d457806370480275146101e7575f5ffd5b80631040eddb146100ff57806324d7806c1461011457806326892ae114610154578063429b62e514610174575b5f5ffd5b61011261010d3660046110ac565b61029e565b005b61013f6101223660046110e7565b6001600160a01b03165f9081526004602052604090205460ff1690565b60405190151581526020015b60405180910390f35b610167610162366004611102565b610381565b60405161014b9190611147565b61013f6101823660046110e7565b60046020525f908152604090205460ff1681565b61013f6101a4366004611290565b6104ad565b6005546101bc906001600160a01b031681565b6040516001600160a01b03909116815260200161014b565b6101126101e23660046112d3565b6104f7565b6101126101f53660046110e7565b610778565b6101126107cb565b5f546001600160a01b03166101bc565b6101126102203660046113b1565b6107de565b6102386102333660046110e7565b6108f4565b60405161014b9190611423565b6101126102533660046114be565b610bbf565b610112610266366004611517565b610d23565b6101126102793660046110e7565b610dd6565b61029161028c366004611102565b610e18565b60405161014b91906115cc565b335f9081526004602052604090205460ff166102cd5760405163ace6634560e01b815260040160405180910390fd5b6001600160a01b0382165f90815260016020526040902054811515600160a01b90910460ff1615150361031357604051631fd9ce1160e31b815260040160405180910390fd5b6001600160a01b0382165f81815260016020526040908190208054841515600160a01b0260ff60a01b19909116179055517f4275679677d2d9de02ec363d44169b2620d44e53597b5457f777bae4be99e0db9061037590841515815260200190565b60405180910390a25050565b606060035f8381526020019081526020015f20805480602002602001604051908101604052809291908181526020015f905b828210156104a2575f848152602090819020604080516080810182526004860290920180546001600160a01b03168352600181015493830193909352600283015460ff169082015260038201805491929160608401919061041390611625565b80601f016020809104026020016040519081016040528092919081815260200182805461043f90611625565b801561048a5780601f106104615761010080835404028352916020019161048a565b820191905f5260205f20905b81548152906001019060200180831161046d57829003601f168201915b505050505081525050815260200190600101906103b3565b505050509050919050565b5f5f826040516020016104c0919061165d565b60408051601f1981840301815291815281516020928301205f87815260068452828120918152925290205460ff1691505092915050565b5f838152600260205260408082206005549151634ef22f7760e11b8152600481018790529092916001600160a01b031690639de45eee90602401602060405180830381865afa15801561054c573d5f5f3e3d5ffd5b505050506040513d601f19601f820116820180604052508101906105709190611673565b600554604051627eeac760e11b81526001600160a01b038084166004830152602482018990529293505f929091169062fdd58e90604401602060405180830381865afa1580156105c2573d5f5f3e3d5ffd5b505050506040513d601f19601f820116820180604052508101906105e6919061168e565b90505f8111610608576040516367a15b2960e01b815260040160405180910390fd5b5f8560405160200161061a919061165d565b60408051601f1981840301815291815281516020928301205f8a81526006845282812082825290935291205490915060ff161561066a576040516306c402dd60e31b815260040160405180910390fd5b61067985856003015483610f97565b610696576040516371bfbd4760e01b815260040160405180910390fd5b5f878152600660209081526040808320848452909152808220805460ff191660019081179091556005549151637921219560e11b81526001600160a01b038781166004830152336024830152604482018c9052606482019290925260a0608482015260a4810193909352169063f242432a9060c4015f604051808303815f87803b158015610722575f5ffd5b505af1158015610734573d5f5f3e3d5ffd5b50506040518381528992503391507f177e38c16407f7d4263d5354c2d05573eeb4b0a8af543b02eb1bd6ad4770bee69060200160405180910390a350505050505050565b610780610fac565b6001600160a01b0381165f81815260046020526040808220805460ff19166001179055517f71614071b88dee5e0b2ae578a9dd7b2ebbe9ae832ba419dc0242cd065a290b6c9190a250565b6107d3610fac565b6107dc5f610fd8565b565b335f90815260016020526040902054600160a01b900460ff1661081457604051630decc33b60e41b815260040160405180910390fd5b600554604051631dbedd0d60e21b81525f916001600160a01b0316906376fb743490610848903390879089906004016116a5565b6020604051808303815f875af1158015610864573d5f5f3e3d5ffd5b505050506040513d601f19601f82011682018060405250810190610888919061168e565b5f818152600260205260409020818155909150600181016108a98782611717565b50600281016108b88682611717565b5060038101839055604051829033907fdc5cf2f196c842f34bf2c67dd883b00e9b199322e44c593ee804b2f666a2914c905f90a3505050505050565b6109366040518060c001604052805f6001600160a01b031681526020015f15158152602001606081526020016060815260200160608152602001606081525090565b6001600160a01b038281165f90815260016020818152604092839020835160c08101855281549586168152600160a01b90950460ff161515918501919091529081018054919284019161098890611625565b80601f01602080910402602001604051908101604052809291908181526020018280546109b490611625565b80156109ff5780601f106109d6576101008083540402835291602001916109ff565b820191905f5260205f20905b8154815290600101906020018083116109e257829003601f168201915b50505050508152602001600282018054610a1890611625565b80601f0160208091040260200160405190810160405280929190818152602001828054610a4490611625565b8015610a8f5780601f10610a6657610100808354040283529160200191610a8f565b820191905f5260205f20905b815481529060010190602001808311610a7257829003601f168201915b50505050508152602001600382018054610aa890611625565b80601f0160208091040260200160405190810160405280929190818152602001828054610ad490611625565b8015610b1f5780601f10610af657610100808354040283529160200191610b1f565b820191905f5260205f20905b815481529060010190602001808311610b0257829003601f168201915b50505050508152602001600482018054610b3890611625565b80601f0160208091040260200160405190810160405280929190818152602001828054610b6490611625565b8015610baf5780601f10610b8657610100808354040283529160200191610baf565b820191905f5260205f20905b815481529060010190602001808311610b9257829003601f168201915b5050505050815250509050919050565b600554604051627eeac760e11b8152336004820152602481018590525f916001600160a01b03169062fdd58e90604401602060405180830381865afa158015610c0a573d5f5f3e3d5ffd5b505050506040513d601f19601f82011682018060405250810190610c2e919061168e565b11610c4c57604051635c62ac8960e01b815260040160405180910390fd5b5f838152600360208181526040808420815160808101835233815280840189815260ff89811694830194855260608301898152845460018082018755958a5296909820835160049097020180546001600160a01b0319166001600160a01b03909716969096178655905192850192909255915160028401805460ff19169190921617905592519091820190610ce19082611717565b505060405160ff8416815284915033907f3cced9413e252a4eebba16b372679a395c5134d9c44a63746f99faa76d2fc6709060200160405180910390a3505050565b335f90815260016020526040902054600160a01b900460ff16610d5957604051630decc33b60e41b815260040160405180910390fd5b335f908152600160208190526040909120908101610d778682611717565b5060028101610d868582611717565b5060038101610d958482611717565b5060048101610da48382611717565b5060405133907f8586453cf10c7dfe9b3b6ba95bfb1258ca31a7e45202e79fbc68bbbd06204de2905f90a25050505050565b610dde610fac565b6001600160a01b038116610e0c57604051631e4fbdf760e01b81525f60048201526024015b60405180910390fd5b610e1581610fd8565b50565b610e4160405180608001604052805f815260200160608152602001606081526020015f81525090565b60025f8381526020019081526020015f206040518060800160405290815f8201548152602001600182018054610e7690611625565b80601f0160208091040260200160405190810160405280929190818152602001828054610ea290611625565b8015610eed5780601f10610ec457610100808354040283529160200191610eed565b820191905f5260205f20905b815481529060010190602001808311610ed057829003601f168201915b50505050508152602001600282018054610f0690611625565b80601f0160208091040260200160405190810160405280929190818152602001828054610f3290611625565b8015610f7d5780601f10610f5457610100808354040283529160200191610f7d565b820191905f5260205f20905b815481529060010190602001808311610f6057829003601f168201915b505050505081526020016003820154815250509050919050565b5f82610fa38584611027565b14949350505050565b5f546001600160a01b031633146107dc5760405163118cdaa760e01b8152336004820152602401610e03565b5f80546001600160a01b038381166001600160a01b0319831681178455604051919092169283917f8be0079c531659141344cd1fd0a4f28419497f9722a3daafe3b4186f6b6457e09190a35050565b5f81815b8451811015611061576110578286838151811061104a5761104a6117d1565b6020026020010151611069565b915060010161102b565b509392505050565b5f818310611083575f828152602084905260409020611091565b5f8381526020839052604090205b9392505050565b6001600160a01b0381168114610e15575f5ffd5b5f5f604083850312156110bd575f5ffd5b82356110c881611098565b9150602083013580151581146110dc575f5ffd5b809150509250929050565b5f602082840312156110f7575f5ffd5b813561109181611098565b5f60208284031215611112575f5ffd5b5035919050565b5f81518084528060208401602086015e5f602082860101526020601f19601f83011685010191505092915050565b5f602082016020835280845180835260408501915060408160051b8601019250602086015f5b828110156111d557868503603f19018452815180516001600160a01b031686526020808201519087015260408082015160ff16908701526060908101516080918701829052906111bf90870182611119565b955050602093840193919091019060010161116d565b50929695505050505050565b634e487b7160e01b5f52604160045260245ffd5b604051601f8201601f191681016001600160401b038111828210171561121d5761121d6111e1565b604052919050565b5f82601f830112611234575f5ffd5b81356001600160401b0381111561124d5761124d6111e1565b611260601f8201601f19166020016111f5565b818152846020838601011115611274575f5ffd5b816020850160208301375f918101602001919091529392505050565b5f5f604083850312156112a1575f5ffd5b8235915060208301356001600160401b038111156112bd575f5ffd5b6112c985828601611225565b9150509250929050565b5f5f5f606084860312156112e5575f5ffd5b8335925060208401356001600160401b03811115611301575f5ffd5b61130d86828701611225565b92505060408401356001600160401b03811115611328575f5ffd5b8401601f81018613611338575f5ffd5b80356001600160401b03811115611351576113516111e1565b8060051b611361602082016111f5565b9182526020818401810192908101908984111561137c575f5ffd5b6020850194505b838510156113a257843580835260209586019590935090910190611383565b80955050505050509250925092565b5f5f5f5f608085870312156113c4575f5ffd5b84356001600160401b038111156113d9575f5ffd5b6113e587828801611225565b94505060208501356001600160401b03811115611400575f5ffd5b61140c87828801611225565b949794965050505060408301359260600135919050565b6020815260018060a01b0382511660208201526020820151151560408201525f604083015160c0606084015261145c60e0840182611119565b90506060840151601f198483030160808501526114798282611119565b9150506080840151601f198483030160a08501526114978282611119565b91505060a0840151601f198483030160c08501526114b58282611119565b95945050505050565b5f5f5f606084860312156114d0575f5ffd5b83359250602084013560ff811681146114e7575f5ffd5b915060408401356001600160401b03811115611501575f5ffd5b61150d86828701611225565b9150509250925092565b5f5f5f5f6080858703121561152a575f5ffd5b84356001600160401b0381111561153f575f5ffd5b61154b87828801611225565b94505060208501356001600160401b03811115611566575f5ffd5b61157287828801611225565b93505060408501356001600160401b0381111561158d575f5ffd5b61159987828801611225565b92505060608501356001600160401b038111156115b4575f5ffd5b6115c087828801611225565b91505092959194509250565b60208152815160208201525f6020830151608060408401526115f160a0840182611119565b90506040840151601f1984830301606085015261160e8282611119565b915050606084015160808401528091505092915050565b600181811c9082168061163957607f821691505b60208210810361165757634e487b7160e01b5f52602260045260245ffd5b50919050565b5f82518060208501845e5f920191825250919050565b5f60208284031215611683575f5ffd5b815161109181611098565b5f6020828403121561169e575f5ffd5b5051919050565b60018060a01b0384168152826020820152606060408201525f6114b56060830184611119565b601f82111561171257805f5260205f20601f840160051c810160208510156116f05750805b601f840160051c820191505b8181101561170f575f81556001016116fc565b50505b505050565b81516001600160401b03811115611730576117306111e1565b6117448161173e8454611625565b846116cb565b6020601f821160018114611776575f831561175f5750848201515b5f19600385901b1c1916600184901b17845561170f565b5f84815260208120601f198516915b828110156117a55787850151825560209485019460019092019101611785565b50848210156117c257868401515f19600387901b60f8161c191681555b50505050600190811b01905550565b634e487b7160e01b5f52603260045260245ffdfea26469706673582212205119769f7849d12b2d78574888841311727c1c9eb5e98987d3e56224abb8512564736f6c634300081c0033",
  "linkReferences": {},
  "deployedLinkReferences": {},
  "immutableReferences": {},
  "inputSourceName": "project/contracts/HoneyTraceStorage.sol",
  "buildInfoId": "solc-0_8_28-3df5583585601ba46d6757e73ca3143d379c98f3"
}